:020000040800F2
:1000000000000220556D00086D2C0008712C0008BE
:10001000752C0008792C00087D2C000800000000D9
:10002000000000000000000000000000916A0008CD
:10003000812C000800000000216B0008856B00087F
:10004000A56D0008A56D0008A56D0008A56D000848
:10005000A56D0008A56D0008A56D0008A56D000838
:10006000A56D0008A56D0008A56D0008852C000889
:10007000892C0008A56D0008A56D0008A56D000875
:10008000A56D0008A56D0008A56D0008A56D000808
:10009000A56D0008A56D0008A56D0008A56D0008F8
:1000A000A56D0008A56D0008A56D0008A56D0008E8
:1000B000A56D0008A56D0008A56D0008A56D0008D8
:1000C000A56D0008A56D0008A56D0008A56D0008C8
:1000D000A56D0008A56D0008A56D0008A56D0008B8
:1000E000A56D0008A56D0008A56D0008A56D0008A8
:1000F000A56D0008A56D0008A56D0008A56D000898
:10010000A56D0008A56D0008A56D0008A56D000887
:10011000A56D0008A56D00088D2C0008A56D0008D0
:10012000A56D0008A56D0008A56D0008A56D000867
:10013000A56D0008A56D0008A56D0008A56D000857
:10014000A56D0008A56D0008A56D0008A56D000847
:10015000A56D0008A56D0008A56D0008A56D000837
:10016000A56D0008A56D0008A56D0008A56D000827
:10017000A56D0008A56D0008A56D0008A56D000817
:10018000A56D0008A56D0008A56D0008A56D000807
:10019000A56D000800000000A56D0008A56D000811
:1001A000A56D0008A56D0008A56D0008A56D0008E7
:1001B000A56D0008A56D0008A56D0008A56D0008D7
:1001C000A56D0008A56D0008A56D0008A56D0008C7
:0801D000A56D0008A56D0008F3
:1001E0000348044B834202D0034B03B118477047C6
:1001F0005008002050080020000000000548064973
:100200000B1AD90F01EBA301491002D0034B03B124
:1002100018477047500800205008002000000000D8
:1002200010B5064C237843B9FFF7DAFF044B13B13E
:100230000448AFF300800123237010BD5008002054
:1002400000000000BC6D000808B5044B1BB1044958
:100250000448AFF30080BDE80840CFE7000000008D
:1002600054080020BC6D0008002301461A461846B9
:1002700000F028B938B50A4C0A4D641BA4100AD006
:1002800004F18043013B05EB8305013C55F804393B
:100290009847002CF9D1BDE8384006F095BD00BF65
:1002A000906F00088C6F000870B50D4E0D4D761BD9
:1002B000B61006D00024013455F8043B9847A642F6
:1002C000F9D1094E094D761B06F078FDB61006D01F
:1002D0000024013455F8043B9847A642F9D170BD7B
:1002E000846F0008846F00088C6F0008846F00081A
:1002F000844641EA000313F003036DD1403A41D331
:1003000051F8043B40F8043B51F8043B40F8043BEF
:1003100051F8043B40F8043B51F8043B40F8043BDF
:1003200051F8043B40F8043B51F8043B40F8043BCF
:1003300051F8043B40F8043B51F8043B40F8043BBF
:1003400051F8043B40F8043B51F8043B40F8043BAF
:1003500051F8043B40F8043B51F8043B40F8043B9F
:1003600051F8043B40F8043B51F8043B40F8043B8F
:1003700051F8043B40F8043B51F8043B40F8043B7F
:10038000403ABDD2303211D351F8043B40F8043B1F
:1003900051F8043B40F8043B51F8043B40F8043B5F
:1003A00051F8043B40F8043B103AEDD20C3205D32F
:1003B00051F8043B40F8043B043AF9D2043208D027
:1003C000D2071CBF11F8013B00F8013B01D30B8899
:1003D00003806046704700BF082A13D38B078DD077
:1003E00010F003038AD0C3F10403D21ADB071CBF49
:1003F00011F8013B00F8013B80D331F8023B20F8B3
:10040000023B7BE7043AD9D3013A11F8013B00F8EB
:10041000013BF9D20B7803704B7843708B78837073
:1004200060467047F0B4860746D0541E002A3CD080
:10043000CAB2034602E014F1FF3436D303F8012BAD
:100440009D07F8D1032C29D9CDB245EA05250F2CFB
:1004500045EA054533D9A4F11006360903F1200712
:1004600007EB061703F1100242E9045542E9025571
:100470001032BA42F8D1721C14F00C0F03EB0212C6
:1004800004F00F0613D0331F23F003030433134487
:1004900042F8045B9342FBD106F003042CB1C9B2CD
:1004A0001C4403F8011B9C42FBD1F0BC704734464E
:1004B0001346002CF3D1F8E714460346C2E71A4668
:1004C0002646E0E7F0B4184C2568D5F8484114B347
:1004D00065681F2D24DC38B9AB1C0135656044F814
:1004E00023100020F0BC704704EB85060127C6F8F6
:1004F000882007FA05F2D4F88871022847EA020733
:10050000C4F88871C6F80831E6D1D4F88C311A43A2
:10051000C4F88C21E0E705F5A674C5F84841D7E793
:100520004FF0FF30DEE700BFD46D0008FEE700BFEC
:1005300003685A004CBF43F0004323F000431844C3
:10054000704700BF2DE9F84329B34F1E04461546F6
:100550003E464FF0000808EB060101EBD17149104F
:1005600004EBC1094846FFF7E3FF0346C800083023
:100570008F42204409D0AB4209D8FFF7D9FF013898
:10058000A8420AD201F10108E5E7AB4205D9884546
:1005900001D04E1EDFE74FF000094846BDE8F88362
:1005A000012807D0022807D0044B00280CBF1846AA
:1005B000002070470248704702487047650C0008E9
:1005C000690C00086D0C000830B5234B83B004465D
:1005D0008D1E3BB301A92846AFF30080E8B1019915
:1005E0002A46FFF7AFFF0146B8B1FFF7A1FF4B68FE
:1005F000A064012B2BD0002B01F1040023DBFFF7BB
:1006000097FF0023C4E913030368002B10DBFFF7F7
:100610008FFF2061002003B030BD0023092023613B
:1006200003B030BD0D490E48091AC9100191D7E732
:10063000C3F30360FFF7B4FF0028206114BF00205C
:10064000092003B030BD0123C4E91303DCE7002314
:1006500023610520DFE700BF00000000846F000871
:10066000A46E00080368DA0710B5044606D49B0799
:1006700000F1480009D500F04BFC2368590709D563
:100680001A070ED5DB0613D510BD00F039FC236820
:100690005907F5D404F1D00000F042FC23681A0792
:1006A000F0D404F5A87000F043FC2368DB06EBD41B
:1006B00004F5E870BDE8104000F07EBC0346006819
:1006C00000B11844704700BF09207047704700BF51
:1006D00070B504460E46316C2046FFF775FF05469F
:1006E00088B9336C636132462369214601209847FB
:1006F0000828F0D0072806D12846316CFFF7E6FF1E
:10070000301D00F0F1FB00F065FE00BF2DE9F04761
:100710000D1D064614460FCDADF5727D0DF10C0C86
:10072000ACE80F000FCDACE80F000FCDACE80F0028
:1007300095E80F0002ADF768D6F818808CE80F0036
:1007400000232B6021E02B6C73614FF4F07229467B
:100750007AA8FFF7CDFD33697AAA3146504698470B
:10076000889BCDE9005821466B648146334632466A
:100770000120B8470446E8B94FF4F0727AA9284638
:10078000FFF7B6FDB9F1080F1BD1296C3046FFF712
:100790001BFF09345FFA84FA81460028D3D0AB6B83
:1007A0004AF01001CDE9005832466B64012033460F
:1007B000B84708B14FF0090948460DF5727DBDE80C
:1007C000F087B9F1070FF5D12046296CFFF77EFFBE
:1007D00003A800F089FB00BF406C7047F0B5CB6BFD
:1007E0000B640E1D0F4605460FCEF9B001AC0FC4C9
:1007F0000FCE0FC40FCE0FC496E80F004FF0FF3698
:1008000084E80F00009606E02B696A46294698475F
:100810000828044608D110992846FFF7D5FE00287D
:10082000F2D0092079B0F0BD6846FFF71BFF062C17
:10083000F7D139462846FFF74BFF00BF30B4DD6BD8
:10084000C160826119461D64002230BC5EE700BFB2
:1008500070B5C66843690B64AEB903690A460446BD
:100860000D46014602209847072805D008280FD1D9
:1008700029462046FFF72CFF3046296CFFF726FF5C
:10088000281D00F031FB0122FFF740FF00F0A2FD20
:1008900000F0A0FDC2681AB1CA6B0A64002235E7F5
:1008A0009CE700BF704700BF836801460BB1012081
:1008B00018477047012912D009D873B90F2A0CD8EC
:1008C00000EB820218465368009A136070470339A0
:1008D000012994BF0120022070470220704708467A
:1008E000704700BF10B584B0002303AC0A460094E3
:1008F0001946FFF7DFFF039804B010BD012912D09D
:1009000009D873B90F2A0CD800EB8200009A12683C
:100910004260184670470339012994BF0120022024
:100920007047022070470846704700BF10B584B07A
:10093000002303AC039200940A461946FFF7DEFF3A
:1009400004B010BDF0B5D36B1364151D8C4606467C
:100950000FCDADF50F7D17AC0FC40FCD0FC40FCD6C
:100960000FC495E80F004FF0FF3784E80F0065468D
:10097000169710E0FFF7DAFF294616A8B04703469E
:1009800016AA6946082083B9049B9847052804469F
:100990000CD0092809D026996846FFF715FE0346B2
:1009A0006A460C2116A8002BE4D0092416A8FFF7EC
:1009B00059FE20460DF50F7DF0BD00BF2DE9F04F2B
:1009C000CC6C89B00D4654F8041B0694174600F011
:1009D00003081E46002B79D00B0CDAB209048DF8FF
:1009E0001D30022304EB820405918DF81C302B6D21
:1009F000B8F1020F08BFAC6B13F001030CD03846FE
:100A000005A900F073FB18B9082009B0BDE8F08F04
:100A1000092009B0BDE8F08FD4F800A0BAF1000FAA
:100A2000EDD0019300F008030293022E4AD0B4F8EF
:100A300000A0B4F802900434AA6C29F0010B0F2135
:100A400038469344FFF74EFF834539D82AF0010218
:100A50005A44824294BF002001204FEA490303F028
:100A600002030AF0010A43EA0A03012B49D0022BD0
:100A700032D0002BCCD1B8F1000F02D0002840F0CA
:100A8000CD800434D4F800A0BAF1000FCDD105A96F
:100A9000384600F02BFB0028BAD1019B002BB3D0C5
:100AA0000F213846FFF71EFF0E2102463846FFF79A
:100AB0003DFF38466A4A0F21FFF738FF0720A8E7B5
:100AC0000020CAE7D4F804900834B5E709020323EC
:100AD0000591ADF81C308AE7236823F0004BB8F18C
:100AE000000F45D128B1029A002A5CD0BBF1000F5B
:100AF00074D0002B00DA04340BF1010B04EB8B04EF
:100B0000C0E7B8F1000F19D1B0B1D4E90023991CA6
:100B10004FEAD2723FF47CAF05F1580101330491E2
:100B200000F09080201DFFF7C9FD04AB0146284668
:100B3000AFF3008000285BD10834A3E70D213846CD
:100B4000D5F82090FFF7CEFE8145F5D1AB6A9C42E7
:100B5000F2D12046FFF7ECFC0F2102463846FFF7A2
:100B6000E5FE38462A460021FFF7E0FE072050E761
:100B70000D213846D5F82090FFF7B4FE814501D00D
:100B80002368B6E7AB6A9C42FAD104220021C5E98A
:100B90000B12A318C5F828B06B6323688B4259DB8E
:100BA00001230193A8E705F15803CDF80C8004F167
:100BB000040AB04691461E460DE00496FFF77EFDFE
:100BC00004AB014600222846AFF3008009F1010979
:100BD0000AF1040AE8B9D9455046EED138460D214C
:100BE000FFF780FE049B2862C5E90934062010E760
:100BF00081460D213846FFF775FEB9F1020F2862D4
:100C000025D12B46049A43F82C2F6B62AC62062048
:100C1000FFE646462368DDF80C806AE72046FFF7CA
:100C200087FC04340246AC6328461446AFF30080C8
:100C300000283FF4EDAE384622460F21FFF776FE3E
:100C40000720E6E638460D21FFF74CFE2862049B9C
:100C50006B62DBE70BF1010004EB80007AE700BF79
:100C6000000000000023A9E60123A7E60223A5E671
:100C70002DE9F0430646C3B015461C46042900F290
:100C8000B980DFE801F09A53B7290300002C40F047
:100C9000B180102A00F2AE800368D80600F1F3801C
:100CA00020AF384600F092F9B06B0023012404FA1B
:100CB00003F22A42014604D051F8042B47F82320BE
:100CC00008460133042BF2D1B063384600F074F9C2
:100CD000002043B0BDE8F083032C40F08B8094B239
:100CE00004EB1243102B4FEA124500F28380036895
:100CF0001F0700F1D08020AF384600F03BF907EB2A
:100D0000C501B56B54B10B46E81A01EBC401E40010
:100D10001A5843F8042B8B42FAD125443846B56360
:100D200000F006F9002043B0BDE8F083012C4FEA43
:100D3000124895B25AD0052C5CD108EB0509B9F1DF
:100D4000200F57D8B8F10F0F77D9A946002D40F0E2
:100D50008880B36B6DB320AF4FF0000907EBC80775
:100D6000043F03EBC50553F8041B47F8041FAB42CF
:100D7000F9D1B9F1000F0FD06F464146102938BFA5
:100D8000102107EBC101843903EBC90553F8040BAB
:100D900041F8040FAB42F9D1012C00F08480B8F186
:100DA0000F0FB56345D9B9F1000F02D0684600F0C6
:100DB000B7F8002043B0BDE8F083DCB9876B234669
:100DC000012094B206F1040C00FA03F222423946E3
:100DD00004D051F8042B4CF823200F460133102B7C
:100DE000F2D115F40050E4D1B76304E008EB050339
:100DF000102B03D9022043B0BDE8F083B8F10F0FE8
:100E0000F8D83368DA0706D5304623F0030340F8F4
:100E1000483B00F079F820AF384600F075F8B36B26
:100E2000002D99D11D460435B563384600F068F8A9
:100E3000BFE720A800F06CF8B5E7B9F1100F40D972
:100E4000A9F110093368D90708D523F0010330460A
:100E500043F0020340F8483B00F05EF8B9F1000FA0
:100E600032D033685A0720D4B8F10F0F25D96F4616
:100E70003846C8F1100500F057F8002DB36B7FF726
:100E80007CAF20AF6AE723F01003336006F5E8700B
:100E900000F09CF804E723F00803036000F5A87055
:100EA00000F068F827E720AFBDE7304623F00403E1
:100EB00040F8D03B00F038F8D6E720A800F02CF836
:100EC000D5E74FF00009BDE7B8F10F0F3FF641AF8E
:100ED00020AF384600F020F8B36B002D7FF43CAF14
:100EE000384600F015F864E700F1340191E8380065
:100EF0009C46A6464CF8045D90E8FF0FE54600BD11
:100F000090EC210B704700BF80EC210B704700BFB5
:100F100090EC200B704700BF80EC200B704700BFA7
:100F2000D0EC200B704700BFC0EC200B704700BF17
:100F3000F0EC0201F0EC0211F0EC0221F0EC0231D5
:100F4000F0EC0241F0EC0251F0EC0261F0EC0271C5
:100F5000F0EC0281F0EC0291F0EC02A1F0EC02B1B5
:100F6000F0EC02C1F0EC02D1F0EC02E1F0EC02F1A5
:100F7000704700BFE0EC0201E0EC0211E0EC02215E
:100F8000E0EC0231E0EC0241E0EC0251E0EC026105
:100F9000E0EC0271E0EC0281E0EC0291E0EC02A1F5
:100FA000E0EC02B1E0EC02C1E0EC02D1E0EC02E1E5
:100FB000E0EC02F1704700BFB0FC0181B0FC019190
:100FC000B0FC01A1B0FC01B1704700BFA0FC0181E1
:100FD000A0FC0191A0FC01A1A0FC01B1704700BFE1
:100FE000EC4600B52DE900502DE9FF1F4FF000033E
:100FF0002DE90C0001A9FFF7F1FBDDF840E012B08C
:10100000704700BFEC4600B52DE900502DE9FF1FE9
:101010004FF000032DE90C0001A9FFF719FCDDF8E2
:1010200040E012B0704700BFEC4600B52DE900501B
:101030002DE9FF1F4FF000032DE90C0001A9FFF778
:1010400029FCDDF840E012B0704700BFEC4600B567
:101050002DE900502DE9FF1F4FF000032DE90C0092
:1010600001ABFFF7EBFBDDF840E012B0704700BFCB
:10107000EC4600B52DE900502DE9FF1F4FF00003AD
:101080002DE90C0001AAFFF75DFCDDF840E012B08D
:10109000704700BF027A7AB9437AA3B14268013B34
:1010A00010B4437213680321141D01721A024460C4
:1010B000026010BC180E70470368013A02721A02EF
:1010C0000260180E7047B020704700BF00B585B0B1
:1010D00003AA0023009219460C22FFF7EBFB0398AA
:1010E00005B05DF804FB00BFF0E700BF2DE9F04359
:1010F000054685B00E464FF000083046FFF7CAFFA0
:10110000B028044600F0B280070620D500F0F003B6
:10111000802B4DD0902B36D0A02B60D0B02B74D02C
:10112000C02B00F08B8000F0F803D02B0BD100F027
:101130000702013242F40022052301212846FFF76D
:1011400097FD0028D9D0092005B0BDE8F0830DF146
:101150000C09002319468700CDF800900D2228467F
:10116000FFF7A8FBFFB2039BCDF8009004376006A1
:101170004CBFDF1BFF18002319460D22284603979A
:10118000FFF7BCFBB9E700F00D030D2BDBD003AF7D
:10119000002300F00F02194600972846FFF78AFB4C
:1011A0000023009719460D222846FFF7A7FBA4E766
:1011B0003046FFF76FFF24022043B0F5004FC2D046
:1011C00004010023A2B219462846FFF751FD00286A
:1011D000B9D114F4004F18BF4FF001088DE7C24396
:1011E00002F007034FF47F621A41010702F47F62A5
:1011F0004FF0000348BF42F4804219462846FFF7EB
:1012000037FD00283FF479AF9DE7B12833D0B228ED
:1012100000F08B80B32839D000F0FC03B42B92D0BF
:1012200000F007020132012342F400221946284649
:10123000FFF71EFD00283FF460AF84E7C62842D0C8
:10124000C7284CD000F0F803C02B5BD0C82860D072
:10125000C9287FF478AF3046FFF71CFF020300F087
:101260000F0002F470220130024365E7B8F1000F6D
:1012700018D0002068E73046FFF70CFF0246002830
:101280003FF461AF10F0F003D0D05CE73046FFF7D9
:1012900001FF010300F00F0001F47021421C012343
:1012A0000A43C3E703AC43460E2241460094284656
:1012B000FFF700FB0094284643460F224146FFF704
:1012C0001DFB404640E73046FFF7E4FE010300F017
:1012D0000F0001F47021421C03230A43A6E73046A5
:1012E000FFF7D8FE024600283FF42DAF10F0F003C0
:1012F0007FF429AF04212846FFF7BAFC00283FF409
:10130000FCAE20E700F00F020132032342F420225A
:101310008CE73046FFF7BEFE00F0F00200F00F034E
:101320001032013343EA023206E700230DF10C09C3
:101330000D221946CDF800902846FFF7BBFA30463B
:10134000FFF7A8FE02064FF002070CD5039B00F042
:101350007F00B840034430460393FFF79BFE03062B
:1013600007F10707F2D4039BCDF8009000F07F044B
:1013700003F50172BC400023144419460D2228468F
:101380000394FFF7BBFAB8E610B5C26C84B053689B
:1013900003248DF80C401B0202F108040846D279A0
:1013A000019301A902948DF80D20FFF79FFE04B070
:1013B00010BD00BF08B5FFF797FE806C08BD00BFE9
:1013C00008B5FFF791FEC06CC379023300EB8300D0
:1013D00008BD00BF08B5062000F090F80120FFF717
:1013E000A5F800BF10B58021044600F0BFF8C4F88E
:1013F000DC0240B1031F00227C3043F8042F8342FB
:10140000FBD1002010BD4FF0FF3010BDD0F8DC3212
:101410000BB100207047E5E71F2970B5054609D8D4
:10142000D0F8DC3216460C464BB153F8240043F892
:10143000246070BD162202604FF0FF3070BDFFF7D0
:10144000D1FF10B9D5F8DC32EFE74FF0FF3070BDB7
:101450001F2938B522D8D0F8DC2205460C466AB1DF
:1014600052F8213053B1012B16D0591C10D0002551
:10147000204642F824509847284638BD284600F0B8
:1014800073F8224601462846BDE8384000F058B8B7
:1014900016230360012038BD002038BD16230360E9
:1014A0004FF0FF3038BD00BF1F2923D838B5D0F822
:1014B000DC3205460C4683B153F8242003EB840349
:1014C0004AB1511C11D0012A0DD0002520461D60C3
:1014D0009047284638BD012038BDFFF783FF30B95B
:1014E000D5F8DC32E8E7032038BD022038BD4FF0E4
:1014F000FF3038BD4FF0FF30704700BF024B014650
:101500001868FFF7A5BF00BF00000020024B0A4685
:1015100001461868FFF780BF00000020034B1868E1
:10152000D0F8DC320BB1002070475BE700000020F0
:10153000024B01461868FFF7B7BF00BF000000204C
:1015400038B50B46074C0546114618460023236064
:1015500000F026FC431C00D038BD2368002BFBD0D4
:101560002B6038BD3026002000F012BC2DE9F04F72
:1015700001F10B05162D83B0064623D8102900F281
:10158000B98000F0A5FA102518230220CD4F3B4466
:10159000A3F108025C68944200F0B980636823F00C
:1015A00003032344D4E902515A68E96042F001027E
:1015B00030468D605A6000F08DFA0834204603B042
:1015C000BDE8F08F35F0070500F19480A94200F2E4
:1015D000918000F07DFAB5F5FC7FC0F09D816B0A2B
:1015E00000F08F80042B00F27381AB0903F1390006
:1015F00003F1380CC300B34F3B44A3F108015C680E
:10160000A14206D10CE0002A80F22B81E468A142BD
:1016100006D0636823F003035A1B0F2AF3DD6046EC
:101620003C69DFF8A4C264457CD0636823F00303FF
:101630005A1B0F2A00F37E81002AC7E904CC80F2EE
:101640006F81B3F5007F80F01A81DB08591C7A683E
:1016500057F83180C4F808804FF0010E9B100EFA45
:1016600003F307EBC10E1343AEF10802E2607B60A7
:1016700047F83140C8F80C408210012494409C4245
:1016800056D81C4206D120F0030064001C4200F131
:101690000400FAD007EBC009CE468046DEF80C30D5
:1016A0009E4507D120E1002A80F22781DB689E4514
:1016B00000F01A81596821F003014A1B0F2AF2DD5C
:1016C000D3E9028E5C1945F001055D6042F0010529
:1016D000C8F80CE03046CEF80880C7E90444C4E9F5
:1016E00002CC65605A50009300F0F4F9009B03F1BE
:1016F000080402E00C2333600024204603B0BDE858
:10170000F08F4FF4007340204FF03F0C73E7DC681C
:10171000A34208BF02307FF441AF3C69DFF8A8C1A3
:10172000644582D17B688210012494409C42A8D9F0
:10173000BC68636823F00308A84503D3A8EB05033E
:101740000F2B7EDCDFF88491D7F80824D9F800301D
:10175000013204EB080A2B4400F0378103F5805373
:101760000F3323F47F6B2BF00F0B5946304600F0FC
:10177000B3F9411C024600F0F780824500F2F28086
:10178000D9F804105944C9F804100B4600F05381ED
:10179000D7F8081401311BBFA2EB0A0A5344C7F85B
:1017A0000824C9F8043012F0070300F01A81C3F1CD
:1017B00008010A44C3F5805193440831A1EB0B01A1
:1017C000C1F30B0A514630460193009200F084F9B0
:1017D000421CDDE9002300F05381831A03EB0A0B5E
:1017E000D9F80410BA604BF001035144BC42536075
:1017F000C9F8041000F02B81B8F10F0F40F22981D5
:101800006368A8F10C0020F0070003F0010304EB6B
:10181000000C03434FF0050E0F286360CCE901EE86
:1018200000F2358153681446D9F82C208A42D9F841
:10183000302038BFC9F82C108A4238BFC9F83010A0
:1018400094E0621943F0010345F0010565603046FC
:10185000BA60536000F03EF90834204603B0BDE89A
:10186000F08F2344E1685A68A56842F00102E960FC
:1018700030468D605A6000F02DF908343DE75A0A71
:10188000042A69D9142A00F2BE8002F15C01C90061
:101890005B3207EB010E7958AEF1080E8E4500F071
:1018A00097804A6822F003029A4202D989688E45DD
:1018B000F7D1D1F80CE07B68C4E9021ECEF80840ED
:1018C000CC60D9E630040020380400206C080020E9
:1018D000142B59D9542B00F29E802B0B03F16F006F
:1018E00003F16E0CC30086E608F1010818F0030F3F
:1018F0000EF1080E7FF4D2AE51E019441C464A683E
:10190000DB6854F8085F42F001024A603046EB6041
:101910009D6000F0DFF8F0E6E80805F1080335E621
:10192000234430465A6842F001025A60083400F0FD
:10193000D1F8E2E6611945F0010E42F00105C4F864
:1019400004E03046C7E90411C1E902CC4D60E25021
:1019500000F0C0F80834D0E69A0902F13901C90054
:10196000383296E7BC4260D0BC68636823F0030B52
:10197000AB45ABEB050302D30F2B3FF762AF30460D
:1019800000F0A8F80024B8E603F15C0003F15B0C5A
:10199000C30030E659F808394B4540F0968010F006
:1019A000030F00F1FF30F5D17B6823EA04037B606D
:1019B00064009C423FF6BCAE1CB9B9E6640008F175
:1019C00004081C42FAD0404664E603F1100BCCE652
:1019D0007B6892104FF0010808FA02F213437B6013
:1019E0006AE702EB0B014942C1F30B0A514630464C
:1019F0000193009200F070F8431CDDE900237FF4AE
:101A0000ECAE9A46ECE6542A26D81A0B02F16F0186
:101A1000C9006E323DE7B3F5AA7F26D8EB0B03F180
:101A2000780003F1770CC300E5E5D9F804305B4496
:101A3000C9F80430ACE6CAF30B0000287FF4A8AE66
:101A400008EB0B03BC6843F001036360ECE614464B
:101A5000EAE60123536092E7B2F5AA7F21D8DA0BB8
:101A600002F17801C900773213E740F254529342F1
:101A700021D8AB0C03F17D0003F17C0CC300BAE567
:101A8000083B9B44ABEB020B4FF0000AA8E604F1C5
:101A90000801304600F082F8BC68D9F80410636889
:101AA000C2E640F254518A420BD89A0C02F17D01F1
:101AB000C9007C32EDE64FF47E737F204FF07E0C40
:101AC00099E54FF47E717E22E3E67B6870E700BF04
:101AD000704700BF704700BF38B5074C002305466C
:101AE0000846236000F064F9431C00D038BD236829
:101AF000002BFBD02B6038BD30260020F8B5244FDA
:101B00000C460646FFF7E4FFBB685D68C4F57E61DE
:101B10000F3125F00305294421F47F6121F00F01E5
:101B2000A1F58054B4F5805F07DB00213046FFF754
:101B3000D3FFBB682B44984204D03046FFF7CAFF5E
:101B40000020F8BD61423046FFF7C6FF01300DD0DE
:101B5000104BBA6819682D1B45F001053046091B6A
:101B600055601960FFF7B6FF0120F8BD002130462F
:101B7000FFF7B2FFBA68831A0F2BDEDD064C05496A
:101B8000246843F00103001B53600860D5E700BFE1
:101B900030040020700800203808002000295ED0A2
:101BA000F8B50F460646FFF793FF57F804CC754D7E
:101BB0002CF00103A7F10800C218A96854689142EB
:101BC00024F0030400F084801CF0010F546002EB49
:101BD000040133D157F808EC4968A0EB0E0005F179
:101BE000080C87686745734401F0010160D0D0F8A4
:101BF0000CE0C7F80CE0CEF80870002900F08D80EA
:101C000043F0010141601360B3F5007F30D2DB087F
:101C1000591C6C689A1001239340234305EBC102C1
:101C200055F831406B60083AC0E9024245F831008E
:101C3000E0603046BDE8F840FFF74CBF4968C9078F
:101C40000ED4234405F1080C9168614543F001046A
:101C50006BD0D268CA6091604460C350D4E77047CB
:101C600043F00101B3F5007F47F8041C1360CED3A5
:101C70005A0A042A46D89A0902F13907FF0002F1EC
:101C80003801EC19EA59083C944255D0516821F0CA
:101C90000301994202D992689442F7D1D468C0E90D
:101CA0000224A060D0603046BDE8F840FFF712BFC4
:101CB000002962D1D2E90221234443F00104D1601A
:101CC0008A604460C3503046BDE8F840FFF702BF69
:101CD0001CF0010F234407D157F8082C801A134435
:101CE000D0E90212CA609160274A126843F00101EC
:101CF0009A424160A8609CD8244B30461968FFF78F
:101D0000FDFE96E7142A0AD9542A1DD81A0B02F1AF
:101D10006F07FF0002F16E01B3E7234494E702F17D
:101D20005C07FF0002F15B01ABE7C5E90400C0E915
:101D300002CC4460C3507CE76B688910012707FA26
:101D400001F119436960AAE7B2F5AA7F06D8DA0B58
:101D500002F17807FF0002F1770192E740F2545157
:101D60008A4206D89A0C02F17D07FF0002F17C013D
:101D700087E74FF47E777E2183E743F001014160DE
:101D8000136056E7300400203C0800206C08002057
:101D9000024B58221A604FF0FF3070473026002067
:101DA000024B58221A604FF0FF3070473026002057
:101DB000044A05491368002B08BF0B4618441060FD
:101DC00018467047A0080020382600203C4A1368B7
:101DD00023F00F0343F0040310B51360136803F0FE
:101DE0000F03042BFAD13749374BD1F8802022F466
:101DF0008072C1F880201A6842F480321A601A6832
:101E00009203FCD5D868314A2F49024042F4285247
:101E100042F00302DA60DA6842F08072DA601A682F
:101E200042F080721A600B689B01FCD58B68264AD1
:101E300043F003038B608B6823F0F00343F08003CF
:101E40008B60936803F00C030C2BFAD12049214BD3
:101E5000CA6842F08072CA601A68002142F001022A
:101E60001A601A4659605368632BFCD9164C1A48FD
:101E7000A36823F0F003A360A36823F4E063A360E6
:101E8000A36823F46053A36000F06AFF002000F011
:101E90001DFFD4F8883023F00C03C4F88830D4F840
:101EA000883023F0405343F00053C4F88830D4F80E
:101EB000883023F0404343F00043C4F8883010BD1D
:101EC0000020024000700040001002400C80FFF92A
:101ED000F0ED00E0001000E0007A030A08B501F020
:101EE0005DFDFFF773FF00F03DF800F047FB00F0E9
:101EF000E1F800F02DF900F06DF900F0BBF900F009
:101F0000FBF900F067FB00F0CDFB00F0F1FB00F007
:101F100093FC00F045FD00F0E9FD00F01FFB00F030
:101F2000B1FB04F035FB00F0A1F804F04DFBFEE737
:101F3000034B02689A4200D0704701F03FBD00BFDA
:101F400000100040704700BF08B5044B186804F04B
:101F50000BFC034B186804F007FCFEE7AC080020FC
:101F6000A80800202DE9F0438BB02E4B2E4D2F4FAB
:101F700000240994DA6C42F02002DA64DA6C02F090
:101F800020020392039ADA6C42F00102DA64DA6CFE
:101F900002F001020292029ADA6C42F00402DA6460
:101FA000DA6C02F004020192019ADA6C42F0020249
:101FB000DA64DB6C03F0020300934FF040094FF446
:101FC00080634FF02008009AAB620126C7F8289082
:101FD00004A9C5F8288028460493CDE9064408944E
:101FE000059600F0C3FE04A93846CDE90496CDE974
:101FF0000644089400F0BAFE4FF4004304A94FF0E1
:10200000904004930594089400F0B0FE04A928467B
:10201000CDE90486CDE90644089400F0A7FE0BB094
:10202000BDE8F083001002400004004800080048AA
:1020300000B58BB02022002102A8FEF7F3F9084B6F
:102040000193084819234FF4007401AA0021CDE937
:10205000064304F0DBFA044B186004F033FB00BFC6
:10206000D86D0008491F0008A408002010B5002200
:1020700004210A2004F02CFB094B04460022042111
:102080000A201C6004F024FB064B074A0146196035
:102090000648002104F0BAFA054B186010BD00BFD5
:1020A000A8080020AC080020F06D000831200008CE
:1020B000BC21002030B500248DB02146202204A888
:1020C000CDE901440394FEF7ADF91F484FF0A04558
:1020D0004FF44031042201238483C0E90244C0E963
:1020E0000444C0E90B44C0E9005180F8244080F862
:1020F0003840C46380F840408261036200F0F4FE1F
:10210000C0B900231048019301A901F0A7FAC0B992
:102110000E4B0493062500237F2404220A480993CA
:1021200004A9CDE90553CDE9074201F003F820B930
:102130000DB030BDFFF706FFE3E7FFF703FF0DB07B
:1021400030BDFFF7FFFEE3E7982200200010603269
:1021500030B589B0202200216846FEF763F91A489D
:102160001A4B03604FF440334360002304210122E3
:102170008383C0E90233C0E90433C0E90B338161D2
:10218000026280F8243080F83830C36380F8403031
:1021900000F0AAFE88B90E4B0093062500237F2489
:1021A0000422094805936946CDE90153CDE903426C
:1021B00000F0C0FF20B909B030BDFFF7C3FEEAE769
:1021C000FFF7C0FE09B030BDC02100200001005063
:1021D0002000F01430B500248DB02146202204A840
:1021E000CDE901440394FEF71DF91F481F4D848378
:1021F0004FF4403104220123C0E90344C0E90B44F9
:10220000C0E900518460446180F8244080F838407F
:10221000C46380F840408261036200F065FEC0B98B
:1022200000231148019301A901F018FAC0B9104B1D
:102230000493062500237F2404220B48099304A954
:10224000CDE90553CDE9074200F074FF20B90DB088
:1022500030BDFFF777FEE3E7FFF774FE0DB030BD4A
:10226000FFF770FEE3E700BF0423002000040050E6
:102270000010603230B589B0202200216846FEF798
:10228000D1F81A481A4B03604FF4403343600023DF
:10229000042101228383C0E90233C0E90433C0E989
:1022A0000B338161026280F8243080F83830C363D8
:1022B00080F8403000F018FE88B90E4B00930625D8
:1022C00000237F240422094805936946CDE9015380
:1022D000CDE9034200F02EFF20B909B030BDFFF771
:1022E00031FEEAE7FFF72EFE09B030BD7023002073
:1022F000000500501000C01030B589B02022002128
:102300006846FEF78FF81A481A4B03604FF44033C3
:1023100043600023042101228383C0E90233C0E922
:102320000433C0E90B338161026280F8243080F805
:102330003830C36380F8403000F0D6FD88B90E4BCA
:102340000093062500237F2404220948059369464B
:10235000CDE90153CDE9034200F0ECFE20B909B00C
:1023600030BDFFF7EFFDEAE7FFF7ECFD09B030BD48
:102370002C220020000600500200300430B5026814
:1023800091B00023B2F1A04FCDE90B33CDE90D336D
:102390000F932AD0684B9A420BD0684B9A4273D065
:1023A000674B9A4200F09580664B9A4244D011B038
:1023B00030BD654A13680133012B136059D0634B5C
:1023C0006348DA6C42F00402DA64DB6C03F0040365
:1023D0000493032200230BA91024CDE90B42049D92
:1023E0000D9301F0E7F911B030BD574A136801337E
:1023F000012B136015D0554B5648DA6C42F002029F
:10240000DA64DB6C03F002030293032200230BA9BE
:102410000224CDE90B42029D0D9301F0CBF911B0DE
:1024200030BD4A4BDA6C42F40052DA64DB6C03F4E0
:1024300000530193019BDEE7474A13680133012BE8
:1024400013606DD0414BDA6C42F00102DA64DB6C50
:1024500003F001030A934FF44074032200230BA9F5
:102460004FF09040CDE90B420A9D0D9301F0A2F987
:102470009DE7364BDA6C42F40052DA64DB6C03F40D
:1024800000530393039B9AE7334A13680133012BEC
:10249000136009D12D4BDA6C42F48042DA64DB6CB4
:1024A00003F480430593059B284B2A48DA6C42F0DD
:1024B0000202DA64DB6C03F00203069300220323BA
:1024C0000BA9CDE90B33069C0D9201F073F911B005
:1024D00030BD214A13680133012B136009D11B4B16
:1024E000DA6C42F48042DA64DB6C03F480430793D5
:1024F000079B164B1748DA6C42F00202DA64DB6C79
:1025000003F002030893032200230BA94FF4804435
:10251000CDE90B42089D0D9301F04CF911B030BD8F
:102520000A4BDA6C42F48042DA64DB6C03F48043D9
:102530000993099B86E700BF00010050000400508A
:102540000005005000060050B008002000100240B6
:102550000008004800040048B4080020064B9A6CAC
:1025600042F008029A649B6C82B003F00803019366
:10257000019B02B0704700BF00100240124B13488D
:10258000996C134A41F004019964996C82B001F08E
:10259000040101910199996C41F0010199649B6CCE
:1025A00003F00103009300230099C16882F80B3304
:1025B0004FF400611160C16882F80C334FF480530E
:1025C000136002B0704700BF0010024000ED00E051
:1025D00000E100E00F48104B002210B5022103601B
:1025E0004FF4807401230282C0E90242C0E90D2247
:1025F000C0E90533C0E90933C0E90B33C0E907116D
:102600008274C26301F082FA00B910BDBDE81040C7
:10261000FFF798BCDC230020006C004030B5016857
:10262000164A89B000239142CDE90333CDE9053341
:10263000079301D009B030BD02F5D2321048916D38
:1026400041F000719165916D01F000710191019966
:10265000D16C41F00201D164D26C059302F0020208
:10266000029202230B2203A91824CDE90343CDE9EA
:102670000632029D01F09EF809B030BD006C0040AA
:1026800000040048064B9A6C42F010029A649B6C5E
:1026900082B003F010030193019B02B0704700BFAA
:1026A00000100240104838B5104B03604FF44073DF
:1026B0004FF482754FF4802408210722C360002361
:1026C000C0E90641C0E90433C0E90833C0E90C336E
:1026D0004560C2628360836201F058FB00B938BD77
:1026E000BDE83840FFF72EBCA42400200030014094
:1026F000104838B5104B03604FF440734FF48275A7
:102700004FF4802408210722C3600023C0E906415A
:10271000C0E90433C0E90833C0E90C334560C26244
:102720008360836201F032FB00B938BDBDE83840F8
:10273000FFF708BC402400200038004070B5036853
:10274000394A8AB000249342CDE90544CDE90744D3
:10275000099404D0354A93422ED00AB070BD344B50
:102760001A6E42F480521A661A6E02F48052009277
:10277000009ADA6C42F00102DA64DB6C079403F031
:102780000103019302251023052605A94FF090406F
:10279000CDE90535019A0894099601F00BF8E0237C
:1027A00005A94FF09040CDE908560695079405938A
:1027B00001F000F80AB070BD1D4B1E489A6D42F43E
:1027C00080429A659A6D02F480420292029ADA6C13
:1027D00042F00202DA64DA6C02F002020392039A17
:1027E000DA6C42F00102DA64DB6C079403F0010357
:1027F000049302264FF43043052505A9CDE905369B
:10280000049A0894099500F0D5FF4FF4806305A958
:102810004FF09040CDE9074406960995059300F0E6
:10282000C9FF0AB070BD00BF003001400038004051
:10283000001002400004004810B518488CB04FF05A
:1028400080414FF48032002301600324C26003A959
:102850000122CDE90633CDE90A33CDE901334360E6
:10286000009383600361836104930893039405924A
:10287000099201F081FF48B9002308480093694696
:10288000029302F005F920B90CB010BDFFF75AFB16
:10289000F2E7FFF757FB0CB010BD00BF5425002036
:1028A00070B5026888B00023B2F1804FCDE90333E0
:1028B000CDE90533079301D008B070BD02F50432AD
:1028C0000325916D41F001019165916D01F00101C8
:1028D00001910199D16C41F00101D164D26C059351
:1028E00002F00102029203A9012202244FF090405B
:1028F000CDE90354029E0693079200F05BFF08B0F7
:1029000070BD00BF094B02689A4200D0704703F5C2
:102910005C4382B01A6E42F400521A661B6E03F4D6
:1029200000530193019B02B0704700BF0034014087
:1029300030B50268184B87B000249A42CDE90144B3
:10294000CDE90344059401D007B030BD03F55C43E5
:102950000225DA6C114842F00202DA64DB6C03945F
:1029600003F002030093009904944022052301A977
:1029700001920593029500F01DFF4FF440720A2367
:102980000648049401A9CDE902540192059300F090
:1029900011FF07B030BD00BF003401400004004803
:1029A00030B500249DB0214634220FA8CDE904445F
:1029B000CDE90644CDE90244CDE90944CDE90B4413
:1029C000CDE90D4401940894FDF72CFD4548464B94
:1029D000036044F2A01540214FF6FF728023C0E946
:1029E000015104614461C260836101F02FFE00283F
:1029F00059D14FF480533B48049304A901F0ECFBF8
:102A000000286CD1374801F085FE002864D1354894
:102A100001F04EFE00285CD10023202231480393B0
:102A200001A9CDE9012302F033F800284ED100229C
:102A300060232C48089308A9CDE90922CDE90B228F
:102A4000CDE90D2201F08CFF00283CD10023254860
:102A50000993042208A901F083FF88BB00232148C1
:102A600008A90822CDE9083301F036FF28BB00236E
:102A70004FF400544FF000721A4813930FA9CDE998
:102A80000F33CDE91133CDE91533CDE91933179360
:102A90001B931494189202F05FF838B91148FFF7AD
:102AA00047FF1DB030BDFFF74DFAA2E7FFF74AFA26
:102AB0000C48FFF73DFF1DB030BDFFF743FAD6E7E6
:102AC000FFF740FACAE7FFF73DFABFE7FFF73AFA28
:102AD000ADE7FFF737FA9FE7FFF734FA97E7FFF71D
:102AE00031FA8FE708250020003401402DE9F0413C
:102AF00090B02022002108A8FDF794FC544B554CBF
:102B00009A6D42F400329A659A6D02F40032019295
:102B1000019ADA6C42F00102DA64DB6C03F0010323
:102B20000025009301270423072602A94FF002087D
:102B30004FF09040009A0293CDE903870796CDE9C4
:102B4000055500F013F9CDE90387434F0796082395
:102B500002A94FF090400293CDE9055500F006F927
:102B600039683E4A3E483F4E3F4B21F0FF0141F05D
:102B70001A013960116801401160116821F4405157
:102B80001160116841F020011160116821F04001CD
:102B90001160116841F080011160116821F44071E9
:102BA0001160116821F440611160316821F0FF016A
:102BB00041F01B0131601A68024042F010021A60B5
:102BC0001A6822F440521A601A6822F020021A6031
:102BD0001A6822F040021A601A6842F080021A60F5
:102BE0001A6822F440721A601A6808A922F4406236
:102BF00020464FF4E1370C261A600895CDE90A55B6
:102C0000CDE90E550C9509970D9602F003F8A368CF
:102C100023F06043A360A36823F06063A36023688C
:102C200023F000532360636823F490436360A36838
:102C300023F02A03A360236843F001032360E369C0
:102C40009A02FCD5E3695B02F9D510B0BDE8F081CA
:102C5000001002400044004000080240080002400A
:102C6000EFBFFFFF040802401C000240704700BF96
:102C7000FEE700BFFEE700BFFEE700BFFEE700BFC4
:102C8000704700BF704700BF704700BF014801F0A8
:102C90007BBB00BFA02500200B4B1A6E42F0010247
:102CA0001A661A6E82B002F001020092009A9A6DC2
:102CB00042F080529A659B6D03F080530193019B13
:102CC00002B000F0C1BE00BF001002401F4B70B543
:102CD0009A6D1F4C42F010029A659B6D88B003F00C
:102CE000100301A90293064603A8029B00F08AFE86
:102CF00000F076FE1749184A2260A1FB00239B0CC6
:102D00000022013B40F2E7312046C4E90312636030
:102D1000A26001F09BFC054610B1284608B070BDCA
:102D2000204601F013FA05460028F6D1362000F0BF
:102D3000DFFE0F2E01D90125EFE72A463146362066
:102D400000F09EFE054B1E60E7E700BF001002404A
:102D5000A025002083DE1B43001000404408002013
:102D6000014B1860704700BF480800202DE9F04F64
:102D70000D6895FAA5F2B2FA82F235FA02F300F084
:102D8000898001264FF0030C4FF00F086FEA050E03
:102D900038E0D1F81090D0F80CA093FAA3F737B12F
:102DA000B7FA87F77F000CFA07F72AEA070A93FABF
:102DB000A3F7002F73D0B7FA87F77F0009FA07F758
:102DC00047EA0A07022CC76048D0076893FAA3F9BC
:102DD000B9F1000F07D0B9FA89F94FEA49090CFA9D
:102DE00009F927EA090793FAA3F3002B55D0B3FAA0
:102DF00083F35B0004FA03F33B430360013235FACB
:102E000002F347D006FA02F32B40F7D04C68671E56
:102E1000012FBED8D1F80890D0F808A093FAA3F7F4
:102E200037B1B7FA87F77F000CFA07F72AEA070AE3
:102E300093FAA3F7002F50D0B7FA87F77F0009FA6B
:102E400007F747EA0A07876047680EEA0709CF686D
:102E500007FB05F749EA070747609AE7FF2BD1F818
:102E600014901ED8D0F820A093FAA3F737B1B7FA80
:102E700087F7BF0008FA07F72AEA070A93FAA3F7C9
:102E80007FB3B7FA87F7BF0009FA07F747EA0A07DF
:102E900007629AE70020BDE8F08F4023AAE74027A9
:102EA0008CE7D0F824A01F0A97FAA7FBBBF1000F0C
:102EB00007D0BBFA8BFB4FEA8B0B08FA0BFB2AEA15
:102EC0000B0A97FAA7F757B1B7FA87F7BF0009FAC5
:102ED00007F747EA0A07476277E74027AFE7802707
:102EE000F5E78027D0E700BF70B582B000230193DB
:102EF000002800F0D480C56D0446002D00F09D80B0
:102F000022689368990005D5936823F0204323F045
:102F10003F0393609368DB0017D47E4B91681B6876
:102F20007D489B0921F01041A0FB030321F03F01E4
:102F30009B0941F0805191600193019B2BB1019B52
:102F4000013B0193019B002BF9D19368DE0066D40D
:102F5000E36D43F01003E365236E43F00103236642
:102F6000936813F0040F4FF00100E36D5ED1DD06AE
:102F70005CD4E36D23F4817343F00203E36593684B
:102F8000D90719D4B2F1A04F00F0A180634B9A4247
:102F900000F0A680624D6349AD6803F580639B68CD
:102FA00089682B430B43DB0706D45F498B68656850
:102FB00023F47C132B438B60D4E90215E36B2B4382
:102FC0000B43657F94F8241043EA4533012943EA13
:102FD00001435FD0E16A21B1256B01F47871294387
:102FE0000B43D6685149656B31400B43D36013697D
:102FF00023F040632B43136193685E0723D59368E6
:103000006369012B4ED0136B23F00F031363E36D41
:1030100023F0030343F00103E36502B070BD93683E
:1030200013F0040F4FF00000E36DA0D0E36D01201A
:1030300043F01003E36502B070BDFFF79FF925660A
:1030400084F858505CE793681D07D9D4D16894F888
:103050003830267F256921F480415B0021F0020190
:1030600043EA86330B43D36013691DBB23F48033DB
:103070001361D2F8C03023F47F5323F03F03C2F82A
:10308000C03094F84030012B33D0136923F0010392
:103090001361B5E7A16A013943EA41439AE7012088
:1030A00002B070BD116B236A21F00F01013B0B438D
:1030B0001363ACE743F480331361D2F8C03023F4D8
:1030C0007F5323F03F032B43C2F8C030D9E71349A5
:1030D000936889680B43D9073FF56EAF144965E7DC
:1030E0004FF0A0439B6891680B43DB073FF564AF4B
:1030F000F4E7D4E911361169E56C21F4FF6121F0A0
:10310000040133430B43216D2B430B4343F0010375
:10311000136175E748080020632D3E05000100504B
:103120000004005000060050000700500740F0FF68
:1031300000030050F0B590F8582083B00346012AF0
:103140004FF00000019000F054811A68012083F8CC
:1031500058009468660750D4D1E90004A60902F12A
:10316000300506F00C0604F01F0477594FF01F0CD1
:103170000CFA04FCC0F3846027EA0C07A040384333
:1031800070519068450740F1A58090680868946880
:10319000E4073BD50446C3490C422CD0B2F1A04F02
:1031A00000F02581C04DC149C148AA4218BF01465F
:1031B0008868C0498C4200F0E07500F01D81BE496E
:1031C0008C4200F01981BD498C4240F05081C00111
:1031D00011D4B2F1A04F00F02C82B34CB349B448E3
:1031E000A2420CBF0A460246916821F0E0710D43ED
:1031F00045F080759560002003E0DA6D42F0200212
:10320000DA65002283F8582003B0F0BDCE68AC4CDC
:10321000D2F8B050DFF8BCC206F01807FC40C0F38B
:103220001207044025EA07052C436645C2F8B04062
:103230000446B0D1002F00F0078190FAA0F4002CD2
:1032400000F09E81B4FA84F4013404F01F04092CC8
:1032500040F2968190FAA0F5002D00F0F081B5FAC9
:1032600085F50135AD0605F0F84590FAA0F4002C7F
:1032700000F0E381B4FA84F4013404F01F04012661
:1032800006FA04F4254390FAA0F0002800F0D38158
:10329000B0FA80F4013404F01F0404EB4404A4F1F8
:1032A0001E00000540F000702843C70D07F004071A
:1032B00002F114058E687C59C0F304504FF0070CDE
:1032C0000CFA00FC24EA0C0406FA00F020437851C2
:1032D0000C6860E7906810F0080040F086808C6809
:1032E0000E68B4F1004F00F0F9804FEAD65C0CF0A4
:1032F000040C02F11407C6F304565CF807504FF0B3
:10330000070E0EFA06FEB44025EA0E052C434CF8D3
:103310000740546924F000445461D1F810C0D668C5
:10332000BCF1040F2ED002F16004DFF8ACE154F8D8
:103330002C500F6805EA0E0EC6F3C1064D697600E3
:1033400007F0F847B54047EA0E073D4345F0004512
:1033500044F82C500F698E6954F8275025F0807579
:10336000354344F827500E690F7F54F82650012F3B
:1033700025F0007508BF4FF00070284344F8260080
:10338000086804E70868146E146EC0F31205C4F3ED
:103390008464002D40F0B680C0F38466B44200F02F
:1033A0001381546E556E02F16004C5F3846502F119
:1033B0006407B54200F02C81A568A56804F10807F0
:1033C000C5F38465C0F38466AE4200F01181E56800
:1033D000E5680C34C5F38465C0F38466AE427FF4BF
:1033E000D6AE206820F0004020600868CFE62F4964
:1033F000DEE6022003B0F0BD01023FF5FCAEB2F103
:10340000A04F32D02F498A427FF4F5AE28482E4A89
:103410002E4C126881689209A4FB0242920921F0A5
:10342000E07102EB42020D43920045F40005856015
:103430000192019A002A3FF4DEAE019A013A01920C
:10344000019A002AF9D1D6E6800E441C04F01F062A
:10345000092E00F28780A506012405F0F845B44046
:1034600006EB4600254300051EE71048CFE7184944
:103470008C427FF4C0AE10F480007FF4BCAE0A49E9
:103480008A423FF4B8AE0A4C01F50071B2F1A04F88
:1034900018BF21468A6822F0E0722A4342F4800273
:1034A0008A60AEE600000880000100500003005072
:1034B00000070050000021C31000C090000052C758
:1034C000FFFF07000006005048080020632D3E055E
:1034D000000084CB00007F4000F0FF03F50D02F1F7
:1034E000140405F00405C6F304562F594FF0070CD9
:1034F0000CFA06F627EA06062E51546944F00044F9
:1035000054610AE790FAA0F51DB1B5FA85F5AC4211
:103510005AD0546E556E02F16004C5F3846502F111
:10352000640790FAA0F61EB1B6FA86F6B5426FD0DF
:10353000A568A56804F10807C5F3846590FAA0F6AC
:103540001EB1B6FA86F6B54252D0E568E5680C348D
:10355000C5F3846590FAA0F6002E3FF418AEB6FAD3
:1035600086F63BE706EB4600A5061E38012405F06B
:10357000F84504FA06F60005354340F0007093E67E
:1035800090FAA0F5002D62D0B5FA85F50135AD06AB
:1035900005F0F84590FAA0F4002C56D0B4FA84F463
:1035A000013404F01F04012606FA04F4254390FABE
:1035B000A0F0002846D0B0FA80F4013404F01F04D3
:1035C00004EB440420056FE6106E144620F0004022
:1035D00044F8600F0868556E556EC0F31206C5F3C7
:1035E000846502F16407002E9BD1C0F38466E0E697
:1035F000386820F0004038600868E568E568C0F386
:103600001206C5F384650C34002E3FF4E5AEA1E745
:10361000386820F0004038600868A568A568C0F3E5
:103620001206C5F3846504F10807002E3FF4CAAE04
:1036300084E7084AD8E5084836E6022422E64FF037
:10364000806512E64FF440102EE60224AEE74FF0FC
:1036500080659FE700030050000050FEF0B490F832
:1036600058300D68012B49D002680123B2F1A04FF8
:1036700080F858300CD0494CA2423DD0C26D002198
:1036800080F8581042F02002C265F0BC184670471E
:10369000434B9B685B070BD59368C36D43F02003D6
:1036A000C3650123002280F85820F0BC18467047FB
:1036B00093685C07F1D4B2F1A04F23D0384B9A4203
:1036C00020D0002D52D1374A344C9368364D3749BB
:1036D00023F460439360A468AB68896823430B4379
:1036E000DB4303F0010373B3936823F4716323F0A6
:1036F0000F0393600023D5E72B4BCAE7022318463C
:10370000F0BC70470DB32A4A4E68936890F8384071
:1037100023F46043334343EA443393604FF0A042C1
:103720001F4B94689B682343DB4302F5407203F010
:10373000010343B194688B6824F471611D4321F047
:103740000F010D4395600023ACE7194A936823F4F9
:10375000604393604FF0A042114B91689B680B430C
:10376000DB4302F5407203F00103BCE70D4A4E68EB
:10377000936890F838400C4F23F46043334343EA96
:103780004433064E9360094CB668BB68A468334363
:103790002343DB4303F00103CBE700BF00040050E9
:1037A00000010050000700500005005000060050C6
:1037B000000300502DE9F04F0E6883B0002E00F09A
:1037C0008B80DFF8D4E10023012202FA03F414EA2B
:1037D000060C7CD04D6825F0100A0AF1FF32012A50
:1037E0004FEA43084FF0030279D9C7688C6802FAA0
:1037F00008F227EA020704FA08F43C43C460D743FE
:10380000046805F00302274002FA08F23A43EC008C
:1038100002605CD55A4C226E42F001022266226E92
:1038200023F0030404F1804402F0010204F5803423
:10383000019203F003024FEA8209019FA7680F2259
:1038400002FA09F8B0F1904F27EA080718D04D4A5C
:10385000904200F084804C4A904200F085804B4AB0
:10386000904276D04A4A904200F08480494A904281
:103870000CBF4FF005084FF0060808FA09F217438D
:10388000A760DEF800406FEA0C07EA0354BF3C4033
:103890004CEA0404CEF80040DEF80440AA0354BF0A
:1038A0003C404CEA0404CEF80440DEF80840EA024A
:1038B00054BF3C404CEA0404CEF80840DEF80C202B
:1038C000AC0254BF3A404CEA0202CEF80C2001335D
:1038D00036FA03F27FF478AF03B0BDE8F08F876863
:1038E000D1F8089002FA08F227EA020BCF6807FA2B
:1038F00008F747EA0B0787604768C5F3001B27EA0C
:1039000004075C469C403C434460C46809FA08F9DB
:1039100024EA020449EA0404BAF1020F6FEA02073A
:10392000C4607FF46DAF4FEAD30900EB890903F05F
:103930000702D9F8204092004FF00F0A0AFA02FB62
:1039400024EA0B0A0C69944044EA0A04C9F82040AE
:1039500056E74FF0030808FA09F2174390E70122EF
:1039600002FA09F217438BE74FF0020808FA09F24E
:10397000174385E74FF0040808FA09F217437FE779
:10398000001002400004004800080048000C0048F5
:1039900000100048001400480004014010B5032046
:1039A00000F05AF80020FFF791F910B101242046E9
:1039B00010BD0446FFF770F9204610BD034A0449C4
:1039C000136809680B441360704700BFEC250020A2
:1039D00040080020014B1868704700BFEC2500200C
:1039E000054B064A9B680649C3F302230868D35C6B
:1039F00003F01F03D840704700100240546E0008C7
:103A0000480800200E4B0F2202609A6802F0030261
:103A100042609A6802F0F00282609A6802F4E06202
:103A2000C2609B68DB0810B403F4E063054C0361DB
:103A300023685DF8044B03F00F030B60704700BF71
:103A40000010024000200240024A936843F4804381
:103A500093607047007000400849CA6810B40002C3
:103A60004FF6FF04224000F4E063134343F0BF63CA
:103A700043F400335DF8044BCB60704700ED00E089
:103A8000194BDB68C3F3022330B4C3F10705042DDF
:103A900003F1040428BF0425062C19D9033B4FF079
:103AA000FF349C4022EA04024FF0FF34AC4021EA8C
:103AB00004019940002841EA02010CDB00F160405A
:103AC00000F561400901C9B280F8001330BC7047AD
:103AD00000221346E8E7054B00F00F0009010344FC
:103AE000C9B2197630BC704700ED00E0FCEC00E094
:103AF000002807DB044A00F01F01012340098B4026
:103B000042F82030704700BF00E100E0002800F0DC
:103B100003812DE9F04790F85C30044603F0FF0282
:103B2000002B73D02268936923F010039361FFF791
:103B300051FF054604E0FFF74DFF431B0A2B5BD8FE
:103B400023689A691207F6D49A6942F001029A61D1
:103B5000FFF740FF054604E0FFF73CFF401B0A2843
:103B60004AD822689369DB07F6D59369734943F015
:103B700002038A42936100F0CB80237C012B93697E
:103B80000CBF23F0400343F040039361637C012B9F
:103B900093690CBF43F4804323F480439361A37C77
:103BA000012B93690CBF23F4805343F4805393613A
:103BB0009369D4E9025123F440732B4393619369D1
:103BC00023F0A40393611369012923F01003136107
:103BD00021D021B30229936900F0AB8043F0800328
:103BE00093611369032943F01003136117D193699B
:103BF00043F02003936112E0236E032243F001039C
:103C0000236684F85C200120BDE8F08780F85D2001
:103C1000FEF704FD86E7936943F004039361D4E95A
:103C20000613013B206A01391B0243EA41636169C3
:103C300001380343013943EA0143B5F5407FD361BD
:103C40000ED1D4E90B53D4E90910013B1B01013D0E
:103C500043EA052301380343013943EA0143D360B2
:103C6000D2F8C030E06B364903438A42C2F8C03014
:103C700054D0344EDFF8F4E03348344BDFF8F0A092
:103C8000DFF8F090DFF8F0C0314D324FDFF8EC8014
:103C9000B24201F5795106F5834601F1380106F18A
:103CA000700604BFF4468646A0F1B0001CBF0D4666
:103CB0009E4601F1D801A3F1B00301BF5746C846A3
:103CC00031460346D2F88060606B236426F4F81610
:103CD00046EA0040C2F88000D2F88000A66BC4F823
:103CE000448020F0706040EA0660C2F88000C4E9B9
:103CF00012ECC4E91475002243F8042B8B42FBD369
:103D00000123226684F85C30A2650020BDE8F087BC
:103D1000114B6168196030E7012070470F4D104F5B
:103D2000DFF85CC0DFF85CE0DFF85C800D490E4B2B
:103D3000C8E743F02003936171E700BF00640040CF
:103D400000680040006C004050AB0040B0A4004050
:103D500018AD004060A6004000650040C8A90040C2
:103D6000B0A90040A0AA004050A7004028AC0040E5
:103D700000AD004010AB004088A5004070A400409A
:103D8000D8A8004000A80040C0A7004000287FD06D
:103D9000D0F824C02DE9F0410446BCF1000F5CD0FE
:103DA0000023C0E9043394F85D30002203F0FF01E2
:103DB000A262002B5ED02168E268022384F85D30A5
:103DC0000B68B2F5E06F23F040030B604CD9B2F5FD
:103DD000706F5FD1A36A002703F40050D4E9013665
:103DE0002569D4F818E006F4044603F482733343DB
:103DF00005F002052B43656902F4706805F00105C2
:103E0000626B2B43D4E9076502F0080242EA08021C
:103E10004FEA1E480EF4007E08F0040843EA0E0341
:103E200006F0380642EA0802334305F080050CF03C
:103E3000100C42EA0C0C2B4303434CEA07070B60BF
:103E40004F60CB69002223F400630125CB61226619
:103E500084F85D501046BDE8F0814368B3F5827F79
:103E6000A1D0C0F81CC09EE70CD04FF480570020B2
:103E7000A062B3E784F85C102046FEF75FFCD4F83C
:103E800024C098E7A36A4FF4805703F40050A5E7D5
:103E9000012070470027EAE7036A23F00103036269
:103EA000F0B4036A466882691A4F8D680C6822F480
:103EB000803223F0020322F07302B84243EA050382
:103EC00042EA040212D0144CA0420FD004F5406420
:103ED000A0420BD004F58064A04207D004F58064B2
:103EE000A04203D004F50064A0420BD1CC6823F0BB
:103EF00008032343D1E9054526F440762C4323F0FB
:103F000004032643496846608261F0BC4163036252
:103F1000704700BF002C014000340140036A23F4C5
:103F200080730362F0B4036A4668C269214F8D68EA
:103F30000C6822F4803223F4007322F07302B8423A
:103F400043EA052342EA040216D01B4CA04213D0D8
:103F500004F5E054A04224D0184CA04213D004F53C
:103F60008064A0420FD004F58064A0420BD004F519
:103F70000064A0420ED106E0CC6823F4006343EA5B
:103F8000042323F48063D1E9054526F440562C43ED
:103F900046EA041649684660C261F0BCC163036228
:103FA0007047CC6823F4006343EA042323F480635E
:103FB000D2E700BF002C0140003401400040014026
:103FC000036A23F480530362F0B4036A4668C2694B
:103FD000214F8D680C6822F0807223F4005322F484
:103FE000E642B84243EA053342EA042216D01B4CAB
:103FF000A04213D004F5E054A04224D0184CA042B3
:1040000013D004F58064A0420FD004F58064A04270
:104010000BD004F50064A0420ED106E0CC6823F476
:10402000004343EA043323F48043D1E9054526F4F1
:1040300040462C4346EA841649684660C261F0BC9B
:10404000016403627047CC6823F4004343EA0433FD
:1040500023F48043D2E700BF002C0140003401402C
:1040600000400140036A23F480330362F0B4026A23
:104070004668036D164F8D680C6823F4803322F474
:10408000003223F07003B84242EA054243EA0403D7
:1040900012D0104CA0420FD004F54064A0420BD0C7
:1040A00004F58064A04207D004F58064A04203D0E8
:1040B00004F50064A04204D14C6926F4803646EA37
:1040C0000426496846600365F0BC8164026270475B
:1040D000002C014000340140036A23F48013036282
:1040E000F0B4026A4668036D164F8D680C6823F0C1
:1040F000807322F4001223F4E043B84242EA0552EE
:1041000043EA042312D0104CA0420FD004F54064BF
:10411000A0420BD004F58064A04207D004F580646F
:10412000A04203D004F50064A04204D14C6926F4F7
:10413000802646EA8426496846600365F0BCC1646F
:1041400002627047002C01400034014090F83D307D
:10415000012B32D103681B49022280F83D20DA6826
:104160008B4242F00102DA6019D0B3F1804F16D0D1
:10417000154A934213D002F5806293420FD002F5A4
:10418000806293420BD002F59432934207D002F53D
:104190004062934203D002F58052934207D199685E
:1041A0000A4A0A40062A0AD0B2F5803F07D01A68A8
:1041B00042F001021A600020704701207047002081
:1041C000704700BF002C01400004004007000100C0
:1041D000704700BF704700BF90F83C30012B00F0E3
:1041E0008C80F0B402680124022380F83C4080F8FF
:1041F0003D3095680B685C4C602B04EA05049460C4
:104200007DD021D9B3F5005F67D04AD957498B4299
:1042100008D03ED956498B4204D0103923F02004EF
:104220008C4208D1916821F4401121F070010B43B8
:1042300043F0070393600023012280F83D2080F8BB
:104240003C30F0BC18467047402B73D01BD9502B24
:10425000F1D1156A166A4C68CF6826F0010616621D
:10426000936925F00A0123F0F00343EA0713214381
:1042700093611162936823F4401323F0700343F0B9
:1042800057039360D7E7202BCCD01CD9302BD2D149
:10429000C8E720398B42C5D019D936498B42C1D0E5
:1042A000C9E7702BC7D1D1E90153CC6891682B4382
:1042B00043EA042321F47F410B439360936843F066
:1042C00077039360B7E733F01001B4D1AAE723F086
:1042D0001001B1F5801FAED1A4E7D1E90153CC683C
:1042E00091682B4343EA042321F47F410B439360FD
:1042F000936843F4804393609DE702207047146AFB
:104300004D68CE6824F0100414629169136A21F498
:10431000704123F0A00343EA051341EA063191619D
:104320001362936823F4401323F0700343F0670390
:10433000936080E7156A166A4C68CF6826F001061C
:104340001662936925F00A0123F0F00343EA07138C
:10435000214393611162936823F4401323F07003A7
:1043600043F04703936066E78800CEFF40001000EB
:104370006000100030001000704700BF704700BFA1
:10438000704700BF704700BF03681A69910710B5F6
:10439000044603D5DA68920700F18A801A69520749
:1043A00002D5DA68500770D41A69110702D5DA68A5
:1043B000120758D41A69D10602D5DA68D2063ED45B
:1043C0001A69D00703D5DA68D10700F18A801A6923
:1043D000120603D5DA68100600F18B801A69D10540
:1043E00003D5DA68120600F18C801A69500603D5ED
:1043F000DA68510600F18D801A69920603D5DA68F1
:10440000900600F18E801A69D10203D5DA68D202D3
:1044100000F18F801A69900203D5DA68910200F1E9
:1044200090801A69520203D5DA68500200F1918037
:104430001A69110202D5DA6812024AD410BD6FF06F
:104440001001082219612277DB6913F4407F2046AE
:1044500040F09080FFF790FF2046FFF791FF002289
:1044600023682277ACE76FF00801042219612277F4
:10447000DB699B0720467AD1FFF77EFF2046FFF7D6
:104480007FFF00222368227794E76FF00401022265
:10449000196122779B6913F4407F204664D1FFF7AE
:1044A0006BFF2046FFF76CFF0022236822777BE733
:1044B0006FF002010122196102779B69990750D1BF
:1044C000FFF75AFF2046FFF75BFF002223682277A1
:1044D00064E76FF4000220461A61BDE8104000F066
:1044E00097BB6FF001021A612046FDF721FD23689A
:1044F0006DE76FF080021A61204600F07FFB2368B1
:104500006CE76FF480721A61204600F079FB236833
:104510006BE76FF040021A612046FFF733FF236814
:104520006AE76FF020021A61204600F065FB2368FD
:1045300069E76FF480121A61204600F063FB23687C
:1045400068E76FF400121A61204600F05DFB2368F3
:1045500067E76FF480021A61204600F057FB23687A
:1045600066E7FFF70BFFB0E7FFF708FF9CE7FFF7F1
:1045700005FF86E7FFF702FF71E700BF314A0368D6
:10458000904270B43ED0B0F1804F26D0A2F5943264
:10459000904222D002F5806290421ED002F58062E5
:1045A00090421AD002F5943290422BD002F5E0529C
:1045B000904241D0244A90423BD002F58062904222
:1045C00037D002F58062904233D002F5006290420B
:1045D0002FD04D698C680A680AE04A68CE684D6938
:1045E0008C6823F07003134323F440730A68334349
:1045F00023F080032B4303600123C462826270BCFA
:10460000436170474D68CC684A6923F070032B43BF
:1046100023F44073234323F08003134303608B6828
:10462000C3620B6883620B690363012370BC43613F
:104630007047CC684A69EBE74A6823F0700313437C
:10464000B8E700BF002C01400040014070B310B536
:1046500090F83D30044603F0FF0213B302232146D5
:1046600084F83D3051F8040BFFF788FF012384F8EC
:10467000483084F83E3084F83F3084F8403084F885
:10468000413084F8423084F8433084F8443084F870
:10469000453084F8463084F8473084F83D300020B7
:1046A00010BD80F83C20FEF72DF9D7E701207047B8
:1046B00070B310B590F83D30044603F0FF0213B319
:1046C0000223214684F83D3051F8040BFFF756FFD2
:1046D000012384F8483084F83E3084F83F3084F871
:1046E000403084F8413084F8423084F8433084F814
:1046F000443084F8453084F8463084F8473084F8F4
:104700003D30002010BD80F83C20FFF761FDD7E769
:104710000120704770B310B590F83D30044603F0A7
:10472000FF0213B30223214684F83D3051F8040BF5
:10473000FFF724FF012384F8483084F83E3084F8E2
:104740003F3084F8403084F8413084F8423084F8B7
:10475000433084F8443084F8453084F8463084F897
:10476000473084F83D30002010BD80F83C20FFF732
:1047700031FDD7E701207047002859D0F0B590F8F7
:104780003D3083B00D46044603F0FF02002B4AD0B3
:104790002146022384F83D3051F8040B836823F44A
:1047A000A03323F007038360FFF7E8FE21682B693D
:1047B00088688E69AF69AA68D5F800C026F4407E83
:1047C000EE691B0143EA06232E6A0196EE68334325
:1047D000019E2EF0030E42EA072242EA0E020F6A01
:1047E00043EA06336E696D6822F47C4240EA0C00AD
:1047F00022F0FC0227F0AA0745EA06158860134359
:104800003D43012200208B610D6284F8482084F82A
:104810003E2084F83F2084F8442084F8452084F822
:104820003D2003B0F0BD80F83C20FEF739F8AFE73B
:1048300001207047036A23F010030362F0B4036A97
:1048400046688269214F8D680C6822F0807223F0DF
:10485000200322F4E642B84243EA051342EA042266
:1048600016D01B4CA04213D004F5E054A04224D033
:10487000184CA04213D004F58064A0420FD004F578
:104880008064A0420BD004F50064A0420ED106E083
:10489000CC6823F0800343EA041323F04003D1E9FA
:1048A000054526F440662C4346EA8406496846607E
:1048B0008261F0BC816303627047CC6823F080039F
:1048C00043EA041323F04003D2E700BF002C014069
:1048D000003401400040014090F83C30012B3DD0B5
:1048E000012310B5044680F83C30142A0FD8DFE8C5
:1048F00002F00B0E0E0E190E0E0E200E0E0E270ECF
:104900000E0E2E0E0E0E12000068FFF7C5FA0020E4
:1049100084F83C0010BD0068FFF7DEFB002084F83F
:104920003C0010BD0068FFF785FF002084F83C00C4
:1049300010BD0068FFF7F2FA002084F83C0010BDBB
:104940000068FFF73DFB002084F83C0010BD0068C4
:10495000FFF788FB002084F83C0010BD0220704760
:1049600038B590F83C30012B00F08F8001230446CD
:104970000D4680F83C30142A1CD8DFE802F00B1BEF
:104980001B1B341B1B1B491B1B1B5D1B1B1B721B97
:104990001B1B1F000068FFF77FFA236828699969CD
:1049A00041F008019961996921F0040199619A69BE
:1049B00002439A61002084F83C0038BD0068FFF78C
:1049C0008BFB23682869196D41F400611965196D25
:1049D00021F4806119651A6D42EA002200201A65EF
:1049E00084F83C00E9E70068FFF724FF23682869A2
:1049F000996941F400619961996921F48061996133
:104A00009A6942EA002200209A6184F83C00D4E7C7
:104A10000068FFF783FA23682869D96941F0080123
:104A2000D961D96921F00401D961DA690243002012
:104A3000DA6184F83C00C0E70068FFF7C1FA236838
:104A40002869D96941F40061D961D96921F480618B
:104A5000D961DA6942EA00220020DA6184F83C0078
:104A6000ABE70068FFF7FEFA23682869196D41F08B
:104A700008011965196D21F0040119651A6D0243C9
:104A800000201A6584F83C0097E7022038BD00BF7B
:104A900090F83C30012B58D070B402682C4C0223A3
:104AA00080F83D30A2425368956842D004F5006416
:104AB000A24232D004F5E054A2422ED00C6823F07A
:104AC000007323F0700323435360B2F1804F16D07C
:104AD000204B9A4213D003F580639A420FD003F51E
:104AE00080639A420BD003F594339A4207D003F5C2
:104AF00040639A4203D003F580539A4204D18B68F5
:104B000025F080051D4395600023012280F83D209B
:104B100080F83C3070BC18467047D1E9004623F459
:104B20007003334323F0007323F070032343536077
:104B3000CBE7D1E9004623F47003334323F000733D
:104B400023F0700323435360D9E70220704700BF6E
:104B5000002C01400004004090F83C30012B47D06D
:104B600030B4D1E90253024623F44073D1E9000482
:104B70002B4323F48063234323F40063D1E90454DB
:104B8000034323F480532B4323F40053086B8D69B4
:104B9000234323F480430343164C106823F470230B
:104BA000A04243EA054307D004F50064A04203D0C5
:104BB00004F5E054A04214D1CD698C6A23F08053EF
:104BC0002B4323F4700343EA0453D1E9085423F040
:104BD00080732B4323F00073C96A234323F00053EF
:104BE0000B430021436482F83C10084630BC7047F8
:104BF00002207047002C0140704700BF704700BF83
:104C0000704700BF704700BF704700BF704700BFCC
:104C1000704700BF0368DB0732D470B5D1E90426C2
:104C200004468B68C8690D4613432168374A3343ED
:104C30000A400343134323606268EB68A869344960
:104C400022F440521A436260A36823F44073034382
:104C50008C42A36016D02F4B9C422FD02E4B9C42EF
:104C600030D02E4B9C4238D02D4B9C422ED02A68FF
:104C70000120E36A92B223F00F031343E36270BD95
:104C800001207047032000F087F80028EFD0696802
:104C90000029ECD02A680B2A1DD8EB69B3F5004F28
:104CA0001FD0204B53F82230B0FBF3F303EB51033A
:104CB000B3FBF1F39BB2E3600020DAE70C2000F0D5
:104CC0006BF8E2E7302000F067F8DEE74FF4407061
:104CD00000F0DAF8D9E70020CBE7C02000F0D4F8E4
:104CE000D3E7104D4B0855F82250B0FBF5F04FF6C6
:104CF000F07503EB4000B0FBF1F303EA0501C3F3E9
:104D000042030B43E3600020B3E700BFF369FFEF0A
:104D1000003801400044004000480040004C004082
:104D200000500040146E00080E4B0F4830B4DC6891
:104D3000D968DA68DB680D4D04F00304C3F34163FE
:104D4000032C08BF2846C1F30621C2F30312013326
:104D500000FB01F001325B00B0FBF2F030BCB0FBB5
:104D6000F3F07047001002400024F40000127A00B3
:104D7000064B9B6803F00C03082B05D00C2B01D1CC
:104D8000FFF7D2BF02487047024870470010024048
:104D90000024F40000127A00032810B528D00C2853
:104DA00003D0302847D0002010BD304C304AD4F812
:104DB000883003F00C0343F4402393424FD0B3F107
:104DC0000C1F30D0043A934245D0FFF7D1FFA268C0
:104DD000A3682849284CC2F30312C3F30223A25C40
:104DE000CB5C02F01F02D04003F01F03D84010BD7F
:104DF0001E4C224AD4F8883003F0030343F44033B6
:104E000093422CD0B3F1031F0DD0013A934222D02C
:104E1000FFF7AEFFA268A3681649174CC2F303124E
:104E2000C3F3C223DBE7D4F8900010F0020018BFF0
:104E30004FF4004010BD0D4C114AD4F8883003F0F7
:104E4000300343F44013934209D0B3F1301FEAD04A
:104E5000103A9342B9D1BDE81040FFF789BF2068EE
:104E6000084B10F4806018BF184610BD00100240B7
:104E700008000C00546E0008446E00080200030095
:104E8000200030000024F400C02810B528D0B0F570
:104E9000407F23D1244C254AD4F8883003F4407352
:104EA00043F04073934237D0B3F1032F2CD0A2F5D7
:104EB0008072934224D0FFF75BFFA268A3681C4C6A
:104EC0001C49C2F30312C3F30223A25CCB5C02F0C1
:104ED0001F02D04003F01F03D84010BD002010BDBA
:104EE000114C154AD4F8883003F0C00343F4400352
:104EF000934211D0B3F1C01F06D0403A9342DAD1A9
:104F0000BDE81040FFF734BFD4F8900010F0020065
:104F100018BF4FF4004010BD2068084B10F48060AB
:104F200018BF184610BD00BF001002400002000369
:104F3000446E0008546E00088000C0000024F40095
:104F4000054BD3F888204FF0006142F47002C3F89B
:104F500088209960704700BF00ED00E000F1080371
:104F60004FF0FF310022C0E90333816002604360EB
:104F7000704700BF00230361704700BF43680268A9
:104F800010B49C688C609C684B60013261609960D1
:104F90005DF8044B08610260704700BF30B40D68D3
:104FA0006B1C10D000F108031C465B681A68AA420B
:104FB000FAD902684B60013299608C6061600861C7
:104FC00030BC0260704704696368F2E7036910B49B
:104FD000D0E901125C688A608442516008BF5A605F
:104FE0001A685DF8044B0021013A01611A601868E3
:104FF000704700BF70B50446006CA66B20B92568E9
:105000005DB30136A66370BD1546024685B960687A
:10501000FBF76EF96368216CA2680B4493426360EE
:1050200006F1010624BF236863602846A66370BDAD
:10503000E068FBF75DF9226CE36821689B1A8B42FC
:10504000E360C2F1000202D2A3681A44E260022DBA
:1050500008D001360020A66370BDA06801F048F8B2
:10506000A560CEE7012E38BF01260020CAE700BFA9
:10507000026C72B110B40B46D0E902411144A14256
:10508000C16024BF0168C1605DF8044B1846FBF79E
:105090002FB9704770B5044601F00CFD94F84550E7
:1050A0006DB2002D15DD04F1240604E06B1E13F033
:1050B000FF0F5DB20DD0636A304653B100F066FF5A
:1050C0000028F3D000F0FEFF6B1E13F0FF0F5DB25F
:1050D000F1D1FF2384F8453001F00EFD01F0EAFC28
:1050E00094F844506DB2002D15DD04F1100604E073
:1050F0006B1E13F0FF0F5DB20DD02369304653B124
:1051000000F044FF0028F3D000F0DCFF6B1E13F02A
:10511000FF0F5DB2F1D1FF2384F84430BDE8704049
:1051200001F0EABC38B5E0B104460D4601F0C2FC1E
:10513000D4E90F032268626000FB03F0C31A134432
:10514000FF2102440020A063C4E9022384F8441034
:1051500084F84510EDB9236963B901F0CDFC012055
:1051600038BD4FF0500383F31188BFF36F8FBFF347
:105170004F8FFEE704F1100000F008FF0028ECD08C
:105180000A4B4FF080521A60BFF34F8FBFF36F8FFF
:10519000E3E704F11000FFF7E1FE04F12400FFF75C
:1051A000DDFE01F0A9FC012038BD00BF04ED00E0E8
:1051B000F8B5064617460D4669B100FB01F05030C0
:1051C00001F042FB0446C0B1002200F1500380F818
:1051D0004620036007E0502001F036FB044660B132
:1051E00084F846502460C4E90F6501212046FFF78A
:1051F00099FF84F84C702046F8BD00242046F8BD85
:1052000030B583B09DF8185040B94FF0500383F388
:105210001188BFF36F8FBFF34F8FFEE71C46DBB1E2
:1052200072B111B350230193019B502B26D04FF044
:10523000500383F31188BFF36F8FBFF34F8FFEE7E7
:1052400061BB50230193019B502BF0D10123019AA4
:1052500084F84630224615E04FF0500383F311885E
:10526000BFF36F8FBFF34F8FFEE74FF0500383F311
:105270001188BFF36F8FBFF34F8FFEE7019B0123B0
:1052800084F84630C4E90F01226001212046FFF76F
:1052900049FF204684F84C5003B030BD4FF0500316
:1052A00083F31188BFF36F8FBFF34F8FFEE700BF0B
:1052B00040B94FF0500383F31188BFF36F8FBFF3F2
:1052C0004F8FFEE7FFF774BF2DE9F04784B00192DE
:1052D000002876D088461F460446002965D0022F54
:1052E0000BD1E36B012B08D04FF0500383F31188EF
:1052F000BFF36F8FBFF34F8FFEE700F0E9FE064666
:10530000002867D00026DFF83CA14FF0000907E035
:1053100001F0F2FB2046FFF7BDFE00F02FFD012655
:1053200001F0C8FBA26BE36B9A4263D3022F61D0FA
:10533000019D002D00F08280002E57D001F0DCFB93
:1053400000F060FC01F0B6FB94F84430FF2B08BF7E
:1053500084F8449094F84530FF2B08BF84F84590BA
:1053600001F0CAFB01A902A800F064FE00285ED18A
:1053700001F0A0FBA26BE36B9A42C9D101F0BCFB28
:10538000019904F1100000F0C7FD2046FFF782FEEE
:1053900000F0F4FC0028C2D14FF08053CAF800306E
:1053A000BFF34F8FBFF36F8FB9E7036C002B96D01D
:1053B0004FF0500383F31188BFF36F8FBFF34F8F0C
:1053C000FEE74FF0500383F31188BFF36F8FBFF3F5
:1053D0004F8FFEE7019B002B95D04FF0500383F3D6
:1053E0001188BFF36F8FBFF34F8FFEE702A800F065
:1053F00015FEA3E73A4641462046FFF7FBFD636AE8
:1054000073B938B10F4B4FF080521A60BFF34F8F12
:10541000BFF36F8F01F070FB012004B0BDE8F0878F
:1054200004F1240000F0B2FD0028F3D0EAE72046A2
:10543000FFF730FE00F0A2FC0020EEE701F05CFB7D
:105440002846EAE704ED00E02DE9F843002835D0CE
:10545000894690461F46044621B3022F0BD1E36BC9
:10546000012B08D04FF0500383F31188BFF36F8FE7
:10547000BFF34F8FFEE701F03FFCEFF311864FF0D3
:10548000500383F31188BFF36F8FBFF34F8FA26B6D
:10549000E36B9A421BD3022F19D0002086F31188A8
:1054A000BDE8F883036C002BD7D04FF0500383F393
:1054B0001188BFF36F8FBFF34F8FFEE74FF050039C
:1054C00083F31188BFF36F8FBFF34F8FFEE794F81C
:1054D00045503A4649466DB22046FFF78BFD6B1C9E
:1054E00008D06B1C5BB284F84530012086F311882C
:1054F000BDE8F883636A002BF7D004F1240000F0C4
:1055000045FD0028F1D0B8F1000FEED00120C8F819
:105510000000C3E72DE9F04385B00192002871D067
:105520000E460446002954D000F0D2FD002844D095
:1055300001F0C0FAA56B002D40F08380019B002B89
:1055400035D002A800F06AFDDFF82C912F4604F157
:10555000240801F0D1FA00F055FB01F0ABFA94F801
:105560004430FF2B08BF84F8447094F84530FF2B7B
:1055700008BF84F8457001F0BFFA01A902A800F045
:1055800059FD002831D101F095FAA36B002B42D0D0
:1055900001F0B2FA2046FFF77DFD00F0EFFB01F0CD
:1055A00089FAA56B002D4CD1019B002BD1D101F0C4
:1055B000A3FA002005B0BDE8F083019B002BB7D013
:1055C0004FF0500383F31188BFF36F8FBFF34F8FFA
:1055D000FEE7036C002BA7D04FF0500383F3118834
:1055E000BFF36F8FBFF34F8FFEE72046FFF752FDEB
:1055F00000F0C4FB01F05EFAA36B002BD7D001F0E2
:105600007BFACCE74FF0500383F31188BFF36F8F21
:10561000BFF34F8FFEE701F06FFA0199404600F0AB
:105620007BFC2046FFF736FD00F0A8FB0028B6D132
:105630004FF08053C9F80030BFF34F8FBFF36F8F27
:10564000ADE731462046013DFFF712FDA563236912
:105650001BB901F051FA0120ACE704F1100000F091
:1056600095FC0028F5D0044B4FF080521A60BFF330
:105670004F8FBFF36F8FECE704ED00E030B4084AC2
:10568000002352F8334002EBC30524B10133082B49
:10569000F7D130BC7047686042F8331030BC7047B7
:1056A000F025002070B504460E46154601F002FABA
:1056B00094F84430FF2B04BF002384F8443094F85E
:1056C0004530FF2B04BF002384F8453001F014FA65
:1056D000A36B23B12046BDE87040FFF7DBBC04F1AB
:1056E00024002A46314600F031FC2046BDE87040D7
:1056F000FFF7D0BC2DE9F843044601F0DBF9344A4A
:10570000344E1368013313603368002B32D0324DAE
:105710002B683BB3E06A314F3149324AD1F800C0BF
:105720001368844503F1010338BF086000EB800073
:10573000636407EB8000211D1360FFF71FFC01F07D
:10574000DBF92B6863B13268E36AD26A9A4207D206
:10575000254B4FF080521A60BFF34F8FBFF36F8F0E
:10576000BDE8F8833368E06ADB6A1C4F834298BF68
:105770003460D1E734601368012B03D0E06A174F1F
:10578000154DC9E7154F3D4607F58C682846143579
:10579000FFF7E4FBA845F9D1DFF86490DFF86480F7
:1057A0000D4D4846FFF7DAFB4046FFF7D7FB0F48A1
:1057B000FFF7D4FB0E48FFF7D1FB0E48FFF7CEFBF7
:1057C0000D4A0E4BC2F80090E06AC3F80080A3E7D0
:1057D000240D0020B8080020800D0020C4080020FF
:1057E000380D0020340D002004ED00E06C0D002089
:1057F000980D0020840D0020BC080020C008002067
:105800003C0D0020500D0020034A044B1268D26862
:10581000D26852681A607047BC080020640D0020EE
:105820002DE9F84F0C9C4FEA820B5A4680460D46F4
:10583000206BA5219946DDE90A6AFAF7F3FD236B8F
:10584000ABF1040B9B442BF0070B95B36A1E05F1DB
:105850000F0104F1330512F8013F05F8013F1778F5
:105860000FB18A42F7D1002384F84330372E28BF86
:1058700037260025C4E91365E662201DFFF77AFB91
:10588000C6F1380604F11800FFF774FB6565A661E0
:10589000246184F8585064624A464146584601F0F3
:1058A000D9F82060BAF1000F01D0CAF80040BDE875
:1058B000F88F84F83450D9E790F8593063B1012B50
:1058C00015D0022B12D04FF0500383F31188BFF391
:1058D0006F8FBFF34F8FFEE710B50446006B01F0EA
:1058E00043F82046BDE8104001F03EB8704701F093
:1058F0003BB800BF80B5154C154E164D164FDFF85E
:105900005C904FF0805813E001F0D4F8F368D3F8BE
:105910000CA00AF10400FFF759FB2B68013B2B6038
:105920002368013B236001F0E7F85046FFF7C4FF0E
:105930002368002BE8D13B68012BF9D9C9F8008016
:10594000BFF34F8FBFF36F8FF2E700BF280D00202A
:10595000980D0020240D0020C408002004ED00E074
:10596000F8B5164B164E1D6833680446181D0F46D1
:10597000FFF72CFB631C17D033682C195C6007D32E
:10598000104B18683168BDE8F8400431FFF706BBDA
:105990000D4B186831680431FFF700FB0B4B1A6898
:1059A000A24288BF1C60F8BD002FE5D031680848CE
:1059B000BDE8F8400431FFF7E1BA00BFAC0D0020AC
:1059C000B8080020C0080020BC080020640D00209A
:1059D000840D0020F0B587B0DDE90C650E9CBDB1EB
:1059E0006CB15C270597059F5C2F1AD04FF05003D0
:1059F00083F31188BFF36F8FBFF34F8FFEE74FF034
:105A0000500383F31188BFF36F8FBFF34F8FFEE70F
:105A10004FF0500383F31188BFF36F8FBFF34F8FA5
:105A2000FEE72563022704AD0294009684F85970BE
:105A30000195059DFFF7F4FE2046FFF75BFE0498F5
:105A400007B0F0BD2DE9F043074685B0900015463C
:105A50008846994600F0F8FEE0B104465C2000F06C
:105A6000F3FE0646D8B104634FF0000C0D9C86F897
:105A700059C001940C9C02964B462A464146384632
:105A80000094FFF7CDFE3046FFF734FE012005B04D
:105A9000BDE8F0834FF0FF3005B0BDE8F08320464D
:105AA00000F062FF4FF0FF30F1E700BF70B5044631
:105AB000284D00F0FFFF002C35D0261D3046FFF7A3
:105AC00085FAA36A1BB104F11800FFF77FFA224A96
:105AD00029681368A14203F1010313601AD01F4A19
