:020000040800F2
:100000000000022075630008891400088D140008A0
:1000100091140008951400089914000800000000CD
:10002000000000000000000000000000B1600008B7
:100030009D1400080000000041610008A56100084F
:10004000C5630008C5630008C5630008C5630008F0
:10005000C5630008C5630008C5630008C5630008E0
:10006000C5630008C5630008C5630008C5630008D0
:10007000C5630008C5630008C5630008C5630008C0
:10008000C5630008C5630008C5630008C5630008B0
:10009000C5630008C5630008C5630008C5630008A0
:1000A000C5630008C5630008C5630008C563000890
:1000B000C5630008C5630008C5630008C563000880
:1000C000C5630008C5630008C5630008C563000870
:1000D000C5630008C5630008C5630008C563000860
:1000E000C5630008C5630008C5630008C563000850
:1000F000C5630008C5630008C5630008C563000840
:10010000C5630008C5630008C5630008C56300082F
:10011000C5630008C5630008A1140008C563000892
:10012000C5630008C5630008C5630008C56300080F
:10013000C5630008C5630008C5630008C5630008FF
:10014000C5630008C5630008C5630008C5630008EF
:10015000C5630008C5630008C5630008C5630008DF
:10016000C5630008C5630008C5630008C5630008CF
:10017000C5630008C5630008C5630008C5630008BF
:10018000C5630008C5630008C5630008C5630008AF
:10019000C563000800000000C5630008C5630008CF
:1001A000C5630008C5630008C5630008C56300088F
:1001B000C5630008C5630008C5630008C56300087F
:1001C000C5630008C5630008C5630008C56300086F
:0801D000C5630008C5630008C7
:1001E0000348044B834202D0034B03B118477047C6
:1001F0001000002010000020000000000548064903
:100200000B1AD90F01EBA301491002D0034B03B124
:100210001847704710000020100000200000000068
:1002200010B5064C237843B9FFF7DAFF044B13B13E
:100230000448AFF300800123237010BD100000209C
:1002400000000000C863000808B5044B1BB1044956
:100250000448AFF30080BDE80840CFE7000000008D
:1002600014000020C863000870B50D4E0D4D761BBC
:10027000B61006D00024013455F8043B9847A64236
:10028000F9D1094E094D761B06F09EF8B61006D03E
:100290000024013455F8043B9847A642F9D170BDBB
:1002A00088640008886400088C640008886400087A
:1002B000844641EA000313F003036DD1403A41D371
:1002C00051F8043B40F8043B51F8043B40F8043B30
:1002D00051F8043B40F8043B51F8043B40F8043B20
:1002E00051F8043B40F8043B51F8043B40F8043B10
:1002F00051F8043B40F8043B51F8043B40F8043B00
:1003000051F8043B40F8043B51F8043B40F8043BEF
:1003100051F8043B40F8043B51F8043B40F8043BDF
:1003200051F8043B40F8043B51F8043B40F8043BCF
:1003300051F8043B40F8043B51F8043B40F8043BBF
:10034000403ABDD2303211D351F8043B40F8043B5F
:1003500051F8043B40F8043B51F8043B40F8043B9F
:1003600051F8043B40F8043B103AEDD20C3205D36F
:1003700051F8043B40F8043B043AF9D2043208D067
:10038000D2071CBF11F8013B00F8013B01D30B88D9
:1003900003806046704700BF082A13D38B078DD0B7
:1003A00010F003038AD0C3F10403D21ADB071CBF89
:1003B00011F8013B00F8013B80D331F8023B20F8F3
:1003C000023B7BE7043AD9D3013A11F8013B00F82C
:1003D000013BF9D20B7803704B7843708B788370B4
:1003E00060467047F0B4860746D0541E002A3CD0C1
:1003F000CAB2034602E014F1FF3436D303F8012BEE
:100400009D07F8D1032C29D9CDB245EA05250F2C3B
:1004100045EA054533D9A4F11006360903F1200752
:1004200007EB061703F1100242E9045542E90255B1
:100430001032BA42F8D1721C14F00C0F03EB021206
:1004400004F00F0613D0331F23F0030304331344C7
:1004500042F8045B9342FBD106F003042CB1C9B20D
:100460001C4403F8011B9C42FBD1F0BC704734468E
:100470001346002CF3D1F8E714460346C2E71A46A8
:100480002646E0E753B94AB9002908BF00281CBF37
:100490004FF0FF314FF0FF3000F06EB9ADF1080CB6
:1004A0006DE904CE00F006F8DDF804E0DDE9022392
:1004B00004B070472DE9F047089D04468C46002B98
:1004C00040F083808A42174647D9B2FA82F242B19D
:1004D000C2F1200024FA00F09140974040EA010C5C
:1004E00094404FEA1748230CBCFBF8F61FFA87FE2E
:1004F00008FB16C143EA014306FB0EF1994209D9F4
:10050000FB1806F1FF3080F01981994240F2168104
:10051000023E3B445B1AA4B2B3FBF8F008FB103375
:1005200044EA034400FB0EFEA64509D93C1900F13C
:10053000FF3380F00581A64540F2028102383C4439
:1005400040EA0640A4EB0E0400261DB1D44000236F
:10055000C5E900433146BDE8F08702B9FFDEB2FAD3
:1005600082F2002A50D1CB1B4FEA174E1FFA87F8B0
:100570000126B3FBFEFC210C0EFB1C3341EA0341B8
:1005800008FB0CF38B4207D979180CF1FF3002D22B
:100590008B4200F2E9808446C91AA3B2B1FBFEF097
:1005A0000EFB101143EA014408FB00F8A04507D9EF
:1005B0003C1900F1FF3302D2A04500F2D980184661
:1005C000A4EB080440EA0C40BFE78B4209D9002D98
:1005D00000F0B1800026C5E9000130463146BDE893
:1005E000F087B3FA83F6002E4AD18B4202D38242BF
:1005F00000F2B880841A61EB030101208C46002DC3
:10060000A8D0C5E9004CA5E7C2F1200320FA03F603
:10061000974001FA02F04FEA174ED9403043030CDD
:10062000B1FBFEF61FFA87F80EFB161143EA0143F1
:1006300006FB08F1994204FA02F409D9FB1806F105
:10064000FF3C80F08D80994240F28A80023E3B441C
:100650005B1A81B2B3FBFEF00EFB103341EA03419B
:1006600000FB08F38B4207D9791800F1FF3C73D2E5
:100670008B4271D902383944CB1A40EA064678E7F2
:10068000C6F1200C03FA06F422FA0CF31C4320FAFC
:100690000CF701FA06F34FEA144E21FA0CF11F434E
:1006A0003B0CB1FBFEF91FFA84F80EFB191143EA6B
:1006B000014109FB08FA8A4502FA06F200FA06F33C
:1006C00008D9611809F1FF3048D28A4546D9A9F105
:1006D00002092144A1EB0A01BFB2B1FBFEF00EFBFF
:1006E000101147EA014700FB08F8B84507D9E71998
:1006F00000F1FF312ED2B8452CD90238274440EA08
:100700000940A7EB0807A0FB02894F45C6464946AA
:100710001AD317D05DB1B3EB0E0267EB010707FAEE
:100720000CFCF2404CEA0202F740C5E90027002623
:100730003146BDE8F0872E4628460BE70646E9E637
:100740001846FDE64345E5D2B8EB020E69EB04011D
:100750000138DFE70846D2E760468DE78146B9E712
:10076000664675E730464AE7ACF1020C394413E7B8
:1007700002383C4424E700BF704700BF30B5002179
:10078000A9B00C4605A83822FFF72CFE21465422BA
:1007900013A8CDE90044CDE902440494FFF722FEFA
:1007A000204602F08BFA0122022303254FF4803108
:1007B00005920E9205A82A220F92CDE910330691D8
:1007C0000C9312930D9501F015FD0F23684604213B
:1007D000CDE901540093CDE90344094D01F08EFFAA
:1007E0004FF000714FF000524FF0004313A8CDE9D5
:1007F000242315941395219102F0D8F829B030BD27
:100800000290010008B501F0D3FCFFF7B7FF00F03C
:100810002DF800F0AFF800F0FBF800F03BF900F025
:1008200089F900F0C9F900F021FB00F09DFB00F010
:10083000C1FB00F057FC00F009FD00F0ADFD00F039
:10084000EDFA00F06BFB05F007FA00F083F805F015
:100850001FFAFEE7034B02689A4200D0704701F08E
:10086000B7BC00BF00100040704700BF2DE9F04347
:100870008BB02E4B2E4D2F4F00240994DA6C42F092
:100880002002DA64DA6C02F020020392039ADA6C36
:1008900042F00102DA64DA6C02F001020292029A7A
:1008A000DA6C42F00402DA64DA6C02F004020192BB
:1008B000019ADA6C42F00202DA64DB6C03F00203A4
:1008C00000934FF040094FF480634FF02008009AE6
:1008D000AB620126C7F8289004A9C5F828802846ED
:1008E0000493CDE906440894059600F043FE04A95C
:1008F0003846CDE90496CDE90644089400F03AFE66
:100900004FF4004304A94FF09040049305940894D9
:1009100000F030FE04A92846CDE90486CDE906445E
:10092000089400F027FE0BB0BDE8F08300100240F1
:10093000000400480008004808B5054C2046012284
:100940004FF4806101F02EFC012005F01FFAF5E75D
:100950000004004808B5044A0448002105F0BAF92B
:10096000034B186008BD00BFF46300083909000894
:100970003819002030B500248DB02146202204A86B
:10098000CDE901440394FFF72DFD1F484FF0A0452A
:100990004FF44031042201238483C0E90244C0E9BA
:1009A0000444C0E90B44C0E9005180F8244080F8B9
:1009B0003840C46380F840408261036200F098FED2
:1009C000C0B900231048019301A901F04BFAC0B946
:1009D0000E4B0493062500237F2404220A48099322
:1009E00004A9CDE90553CDE9074200F0A7FF20B9DE
:1009F0000DB030BDFFF738FFE3E7FFF735FF0DB06F
:100A000030BDFFF731FFE3E7141A00200010603219
:100A100030B589B0202200216846FFF7E3FC1A4870
:100A20001A4B03604FF4403343600023042101223A
:100A30008383C0E90233C0E90433C0E90B33816129
:100A4000026280F8243080F83830C36380F8403088
:100A500000F04EFE88B90E4B0093062500237F243C
:100A60000422094805936946CDE90153CDE90342C3
:100A700000F064FF20B909B030BDFFF7F5FEEAE7EA
:100A8000FFF7F2FE09B030BD3C1900200001005014
:100A90002000F01430B500248DB02146202204A897
:100AA000CDE901440394FFF79DFC1F481F4D84834B
:100AB0004FF4403104220123C0E90344C0E90B4450
:100AC000C0E900518460446180F8244080F83840D7
:100AD000C46380F840408261036200F009FEC0B93F
:100AE00000231148019301A901F0BCF9C0B9104BD2
:100AF0000493062500237F2404220B48099304A9AC
:100B0000CDE90553CDE9074200F018FF20B90DB03B
:100B100030BDFFF7A9FEE3E7FFF7A6FE0DB030BD3D
:100B2000FFF7A2FEE3E700BF801A00200004005098
:100B30000010603230B589B0202200216846FFF7EE
:100B400051FC1A481A4B03604FF4403343600023B2
:100B5000042101228383C0E90233C0E90433C0E9E0
:100B60000B338161026280F8243080F83830C3632F
:100B700080F8403000F0BCFD88B90E4B009306258C
:100B800000237F240422094805936946CDE90153D7
:100B9000CDE9034200F0D2FE20B909B030BDFFF725
:100BA00063FEEAE7FFF760FE09B030BDEC1A0020F3
:100BB000000500501000C01030B589B0202200217F
:100BC0006846FFF70FFC1A481A4B03604FF4403396
:100BD00043600023042101228383C0E90233C0E97A
:100BE0000433C0E90B338161026280F8243080F85D
:100BF0003830C36380F8403000F07AFD88B90E4B7E
:100C00000093062500237F240422094805936946A2
:100C1000CDE90153CDE9034200F090FE20B909B0BF
:100C200030BDFFF721FEEAE7FFF71EFE09B030BD39
:100C3000A8190020000600500200300430B50268F8
:100C400091B00023B2F1A04FCDE90B33CDE90D33C4
:100C50000F932AD0684B9A420BD0684B9A4273D0BC
:100C6000674B9A4200F09580664B9A4244D011B08F
:100C700030BD654A13680133012B136059D0634BB3
:100C80006348DA6C42F00402DA64DB6C03F00403BC
:100C90000493032200230BA91024CDE90B42049DE9
:100CA0000D9301F08BF911B030BD574A1368013331
:100CB000012B136015D0554B5648DA6C42F00202F6
:100CC000DA64DB6C03F002030293032200230BA916
:100CD0000224CDE90B42029D0D9301F06FF911B092
:100CE00030BD4A4BDA6C42F40052DA64DB6C03F438
:100CF00000530193019BDEE7474A13680133012B40
:100D000013606DD0414BDA6C42F00102DA64DB6CA7
:100D100003F001030A934FF44074032200230BA94C
:100D20004FF09040CDE90B420A9D0D9301F046F93A
:100D30009DE7364BDA6C42F40052DA64DB6C03F464
:100D400000530393039B9AE7334A13680133012B43
:100D5000136009D12D4BDA6C42F48042DA64DB6C0B
:100D600003F480430593059B284B2A48DA6C42F034
:100D70000202DA64DB6C03F0020306930022032311
:100D80000BA9CDE90B33069C0D9201F017F911B0B8
:100D900030BD214A13680133012B136009D11B4B6D
:100DA000DA6C42F48042DA64DB6C03F4804307932C
:100DB000079B164B1748DA6C42F00202DA64DB6CD0
:100DC00003F002030893032200230BA94FF480448D
:100DD000CDE90B42089D0D9301F0F0F811B030BD44
:100DE0000A4BDA6C42F48042DA64DB6C03F4804331
:100DF0000993099B86E700BF0001005000040050E2
:100E000000050050000600502C0000200010024099
:100E1000000800480004004830000020054808B5DC
:100E2000054B036002F02AF800B908BDBDE8084090
:100E3000FFF71ABD581B0020000C02400A4B026845
:100E40009A4200D07047D3F8482442F00802C3F811
:100E5000482403F5806382B09B6C03F00803019380
:100E6000019B02B0704700BF000C02400F48104BBE
:100E7000002210B5022103604FF480740123028226
:100E8000C0E90242C0E90D22C0E90533C0E90933D7
:100E9000C0E90B33C0E907118274C26302F008F89D
:100EA00000B910BDBDE81040FFF7DEBC801B00207C
:100EB000006C004070B50168164A88B0002391426A
:100EC000CDE90333CDE90533079301D008B070BDF8
:100ED00002F5D2321048916D41F000719165916D2B
:100EE00001F0007101910199D16C41F00201D164CE
:100EF000D26C059302F00202029203A90B2218257C
:100F00000224CDE90354029E0693079201F056F89D
:100F100008B070BD006C004000040048054808B5EA
:100F2000054B036002F024F900B908BDBDE8084094
:100F3000FFF79ABCE41B002000140240094B026832
:100F40009A4200D07047A3F5806382B09A6C42F059
:100F500010029A649B6C03F010030193019B02B092
:100F6000704700BF001402401048114B10B54FF4F9
:100F7000407203604FF482734FF480240721436072
:100F8000C26000230822C0E90433C0E90833846149
:100F9000C162836083620363C261426302F01CF931
:100FA00000B910BDBDE81040FFF75EBC801C0020FA
:100FB000003001401048114B10B54FF440720360EF
:100FC0004FF482734FF4802407214360C2600023F2
:100FD0000822C0E90433C0E908338461C162836038
:100FE00083620363C261426302F0F6F800B910BD88
:100FF000BDE81040FFF738BC1C1C00200038004042
:1010000070B50368334A8AB000249342CDE90544A1
:10101000CDE90744099404D02F4A934223D00AB063
:1010200070BD2E4B1A6E42F480521A661A6E02F48C
:1010300080520092009ADA6C42F00102DA64DB6CB2
:10104000079403F0010301930222052305A9F0256B
:101050004FF09040CDE90552019E0894099300F0AD
:10106000ADFF0AB070BD1D4B1D489A6D42F4804221
:101070009A659A6D02F480420292029ADA6C42F00A
:101080000202DA64DA6C02F002020392039ADA6C6A
:1010900042F00102DA64DB6C079403F0010304936D
:1010A00002264FF43043052505A9CDE90536049AFB
:1010B0000894099500F082FF4FF4806305A94FF072
:1010C0009040CDE9074406960995059300F076FF18
:1010D0000AB070BD003001400038004000100240EE
:1010E0000004004810B518488CB04FF080414FF410
:1010F0008032002301600324C26003A90122CDE9EC
:101100000633CDE90A33CDE90133436000938360B0
:10111000036183610493089303940592099202F09A
:1011200051FD48B90023084800936946029302F034
:10113000D5FE20B90CB010BDFFF796FBF2E7FFF724
:1011400093FB0CB010BD00BF301D002070B50268CD
:1011500088B00023B2F1804FCDE90333CDE90533E8
:10116000079301D008B070BD02F504320325916DDC
:1011700041F001019165916D01F001010191019929
:10118000D16C41F00101D164D26C059302F00102EF
:10119000029203A9012202244FF09040CDE90354AA
:1011A000029E0693079200F009FF08B070BD00BFD1
:1011B000094B02689A4200D0704703F55C4382B045
:1011C0001A6E42F400521A661B6E03F40053019328
:1011D000019B02B0704700BF0034014030B5026887
:1011E000184B87B000249A42CDE90144CDE903446D
:1011F000059401D007B030BD03F55C430225DA6CDD
:10120000114842F00202DA64DB6C039403F002033B
:101210000093009904944022052301A901920593AB
:10122000029500F0CBFE4FF440720A230648049466
:1012300001A9CDE902540192059300F0BFFE07B069
:1012400030BD00BF003401400004004830B5002428
:101250009DB0214634220FA8CDE90444CDE90644CF
:10126000CDE90244CDE90944CDE90B44CDE90D4473
:1012700001940894FFF7B6F84548464B036044F2E2
:10128000A01540214FF6FF728023C0E9015104618F
:101290004461C260836102F0FFFB002859D14FF422
:1012A00080533B48049304A902F0BCF900286CD198
:1012B000374802F055FC002864D1354802F01EFC86
:1012C00000285CD1002320223148039301A9CDE9F5
:1012D000012302F003FE00284ED1002260232C4897
:1012E000089308A9CDE90922CDE90B22CDE90D2209
:1012F00002F05CFD00283CD100232548099304221C
:1013000008A902F053FD88BB0023214808A9082240
:10131000CDE9083302F006FD28BB00234FF400544A
:101320004FF000721A4813930FA9CDE90F33CDE99E
:101330001133CDE91533CDE9193317931B93149469
:10134000189202F02FFE38B91148FFF747FF1DB081
:1013500030BDFFF789FAA2E7FFF786FA0C48FFF7DE
:101360003DFF1DB030BDFFF77FFAD6E7FFF77CFAEF
:10137000CAE7FFF779FABFE7FFF776FAADE7FFF7BD
:1013800073FA9FE7FFF770FA97E7FFF76DFA8FE7B9
:10139000E41C0020003401401F4808B51F4B0360C7
:1013A0004FF4E13100230C22C0E90233C0E90633D7
:1013B000C0E90833416042610361836203F0C6F80B
:1013C00070B91548002103F04BF988B91248002183
:1013D00003F06CF9A0B9104803F024F9B8B908BDBE
:1013E000FFF742FA0C48002103F03AF90028EDD04B
:1013F000FFF73AFA0848002103F058F90028EAD02C
:10140000FFF732FA044803F00DF90028E7D0BDE8F1
:101410000840FFF729BA00BF7C1D002000440040AF
:1014200070B50168174A88B000239142CDE90333B3
:10143000CDE90533079301D008B070BD02F5E6325F
:101440000C25916D41F400319165916D01F40031ED
:1014500001910199D16C41F00101D164D26C0593E5
:1014600002F00102029203A9072202244FF09040E9
:10147000CDE90354029E0693079200F09FFD08B049
:1014800070BD00BF00440040704700BFFEE700BFD2
:10149000FEE700BFFEE700BFFEE700BF704700BFEA
:1014A000014802F097B900BF081E00200B4B1A6ECE
:1014B00042F001021A661A6E82B002F00102009236
:1014C000009A9A6D42F080529A659B6D03F08053AA
:1014D0000193019B02B001F06FBC00BF00100240FD
:1014E0001F4B70B59A6D1F4C42F010029A659B6DB0
:1014F00088B003F0100301A90293064603A8029BDB
:1015000001F032FA01F00CFA1749184A2260A1FBE7
:1015100000239B0C0022013B40F2E7312046C4E946
:1015200003126360A26002F0B7FA054610B12846C4
:1015300008B070BD204602F02FF805460028F6D10D
:10154000362001F08DFC0F2E01D90125EFE72A4648
:101550003146362001F04CFC054B1E60E7E700BF2A
:1015600000100240081E002083DE1B4300100040D4
:10157000040000202DE9F04F0D6895FAA5F2B2FAAB
:1015800082F235FA02F300F0898001264FF0030C55
:101590004FF00F086FEA050E38E0D1F81090D0F840
:1015A0000CA093FAA3F737B1B7FA87F77F000CFACC
:1015B00007F72AEA070A93FAA3F7002F73D0B7FABE
:1015C00087F77F0009FA07F747EA0A07022CC76086
:1015D00048D0076893FAA3F9B9F1000F07D0B9FA18
:1015E00089F94FEA49090CFA09F927EA090793FA38
:1015F000A3F3002B55D0B3FA83F35B0004FA03F393
:101600003B430360013235FA02F347D006FA02F396
:101610002B40F7D04C68671E012FBED8D1F8089038
:10162000D0F808A093FAA3F737B1B7FA87F77F008D
:101630000CFA07F72AEA070A93FAA3F7002F50D00B
:10164000B7FA87F77F0009FA07F747EA0A078760C2
:1016500047680EEA0709CF6807FB05F749EA07075D
:1016600047609AE7FF2BD1F814901ED8D0F820A03D
:1016700093FAA3F737B1B7FA87F7BF0008FA07F76D
:101680002AEA070A93FAA3F77FB3B7FA87F7BF00EE
:1016900009FA07F747EA0A0707629AE70020BDE858
:1016A000F08F4023AAE740278CE7D0F824A01F0A38
:1016B00097FAA7FBBBF1000F07D0BBFA8BFB4FEAF1
:1016C0008B0B08FA0BFB2AEA0B0A97FAA7F757B11C
:1016D000B7FA87F7BF0009FA07F747EA0A07476230
:1016E00077E74027AFE78027F5E78027D0E700BFFF
:1016F00070B582B000230193002800F0D480C56D3E
:101700000446002D00F09D8022689368990005D55D
:10171000936823F0204323F03F0393609368DB003A
:1017200017D47E4B91681B687D489B0921F01041BE
:10173000A0FB030321F03F019B0941F08051916020
:101740000193019B2BB1019B013B0193019B002B5A
:10175000F9D19368DE0066D4E36D43F01003E365CE
:10176000236E43F001032366936813F0040F4FF0D8
:101770000100E36D5ED1DD065CD4E36D23F481737B
:1017800043F00203E3659368D90719D4B2F1A04F7F
:1017900000F0A180634B9A4200F0A680624D63493D
:1017A000AD6803F580639B6889682B430B43DB07B7
:1017B00006D45F498B68656823F47C132B438B60E8
:1017C000D4E90215E36B2B430B43657F94F8241097
:1017D00043EA4533012943EA01435FD0E16A21B17D
:1017E000256B01F4787129430B43D6685149656B29
:1017F00031400B43D360136923F040632B431361E3
:1018000093685E0723D593686369012B4ED0136BF1
:1018100023F00F031363E36D23F0030343F001038D
:10182000E36502B070BD936813F0040F4FF0000041
:10183000E36DA0D0E36D012043F01003E36502B037
:1018400070BDFFF7FBF9256684F858505CE7936894
:101850001D07D9D4D16894F83830267F256921F442
:1018600080415B0021F0020143EA86330B43D360E1
:1018700013691DBB23F480331361D2F8C03023F405
:101880007F5323F03F03C2F8C03094F84030012B5F
:1018900033D0136923F001031361B5E7A16A01395D
:1018A00043EA41439AE7012002B070BD116B236AFD
:1018B00021F00F01013B0B431363ACE743F480338A
:1018C0001361D2F8C03023F47F5323F03F032B433E
:1018D000C2F8C030D9E71349936889680B43D90728
:1018E0003FF56EAF144965E74FF0A0439B689168E0
:1018F0000B43DB073FF564AFF4E7D4E91136116918
:10190000E56C21F4FF6121F0040133430B43216DA9
:101910002B430B4343F00103136175E708000020DC
:10192000632D3E05000100500004005000060050E9
:10193000000700500740F0FF00030050F0B590F89A
:10194000582083B00346012A4FF00000019000F0B8
:1019500054811A68012083F858009468660750D4AF
:10196000D1E90004A60902F1300506F00C0604F0E6
:101970001F0477594FF01F0C0CFA04FCC0F384606D
:1019800027EA0C07A040384370519068450740F1A2
:10199000A580906808689468E4073BD50446C3496D
:1019A0000C422CD0B2F1A04F00F02581C04DC149AE
:1019B000C148AA4218BF01468868C0498C4200F05D
:1019C000E07500F01D81BE498C4200F01981BD49CF
:1019D0008C4240F05081C00111D4B2F1A04F00F010
:1019E0002C82B34CB349B448A2420CBF0A4602460B
:1019F000916821F0E0710D4345F0807595600020FD
:101A000003E0DA6D42F02002DA65002283F8582004
:101A100003B0F0BDCE68AC4CD2F8B050DFF8BCC219
:101A200006F01807FC40C0F31207044025EA07053A
:101A30002C436645C2F8B0400446B0D1002F00F0F8
:101A4000078190FAA0F4002C00F09E81B4FA84F48F
:101A5000013404F01F04092C40F2968190FAA0F59D
:101A6000002D00F0F081B5FA85F50135AD0605F0E1
:101A7000F84590FAA0F4002C00F0E381B4FA84F465
:101A8000013404F01F04012606FA04F4254390FAF9
:101A9000A0F0002800F0D381B0FA80F4013404F003
:101AA0001F0404EB4404A4F11E00000540F0007084
:101AB0002843C70D07F0040702F114058E687C590E
:101AC000C0F304504FF0070C0CFA00FC24EA0C049D
:101AD00006FA00F0204378510C6860E7906810F037
:101AE000080040F086808C680E68B4F1004F00F06A
:101AF000F9804FEAD65C0CF0040C02F11407C6F32F
:101B000004565CF807504FF0070E0EFA06FEB4407C
:101B100025EA0E052C434CF80740546924F0004494
:101B20005461D1F810C0D668BCF1040F2ED002F178
:101B30006004DFF8ACE154F82C500F6805EA0E0E93
:101B4000C6F3C1064D69760007F0F847B54047EA8D
:101B50000E073D4345F0004544F82C500F698E694F
:101B600054F8275025F08075354344F827500E6906
:101B70000F7F54F82650012F25F0007508BF4FF055
:101B80000070284344F82600086804E70868146ECB
:101B9000146EC0F31205C4F38464002D40F0B680C7
:101BA000C0F38466B44200F01381546E556E02F1A6
:101BB0006004C5F3846502F16407B54200F02C812E
:101BC000A568A56804F10807C5F38465C0F38466B9
:101BD000AE4200F01181E568E5680C34C5F3846518
:101BE000C0F38466AE427FF4D6AE206820F0004099
:101BF00020600868CFE62F49DEE6022003B0F0BD82
:101C000001023FF5FCAEB2F1A04F32D02F498A421B
:101C10007FF4F5AE28482E4A2E4C1268816892094E
:101C2000A4FB0242920921F0E07102EB42020D4353
:101C3000920045F4000585600192019A002A3FF464
:101C4000DEAE019A013A0192019A002AF9D1D6E654
:101C5000800E441C04F01F06092E00F28780A506A2
:101C6000012405F0F845B44006EB46002543000585
:101C70001EE71048CFE718498C427FF4C0AE10F43D
:101C800080007FF4BCAE0A498A423FF4B8AE0A4CE9
:101C900001F50071B2F1A04F18BF21468A6822F009
:101CA000E0722A4342F480028A60AEE600000880B7
:101CB000000100500003005000070050000021C345
:101CC0001000C090000052C7FFFF07000006005040
:101CD00008000020632D3E05000084CB00007F40FB
:101CE00000F0FF03F50D02F1140405F00405C6F33E
:101CF00004562F594FF0070C0CFA06F627EA060691
:101D00002E51546944F0004454610AE790FAA0F55A
:101D10001DB1B5FA85F5AC425AD0546E556E02F13C
:101D20006004C5F3846502F1640790FAA0F61EB161
:101D3000B6FA86F6B5426FD0A568A56804F1080723
:101D4000C5F3846590FAA0F61EB1B6FA86F6B542E0
:101D500052D0E568E5680C34C5F3846590FAA0F6C6
:101D6000002E3FF418AEB6FA86F63BE706EB4600C7
:101D7000A5061E38012405F0F84504FA06F600050C
:101D8000354340F0007093E690FAA0F5002D62D044
:101D9000B5FA85F50135AD0605F0F84590FAA0F4E1
:101DA000002C56D0B4FA84F4013404F01F04012648
:101DB00006FA04F4254390FAA0F0002846D0B0FAC1
:101DC00080F4013404F01F0404EB440420056FE6A2
:101DD000106E144620F0004044F8600F0868556EFD
:101DE000556EC0F31206C5F3846502F16407002E38
:101DF0009BD1C0F38466E0E6386820F0004038608C
:101E00000868E568E568C0F31206C5F384650C341C
:101E1000002E3FF4E5AEA1E7386820F000403860BE
:101E20000868A568A568C0F31206C5F3846504F1C7
:101E30000807002E3FF4CAAE84E7084AD8E50848F0
:101E400036E6022422E64FF0806512E64FF4401099
:101E50002EE60224AEE74FF080659FE700030050B6
:101E6000000050FEF0B490F858300D68012B49D0B6
:101E700002680123B2F1A04F80F858300CD0494CD1
:101E8000A2423DD0C26D002180F8581042F02002DD
:101E9000C265F0BC18467047434B9B685B070BD587
:101EA0009368C36D43F02003C3650123002280F8CB
:101EB0005820F0BC1846704793685C07F1D4B2F123
:101EC000A04F23D0384B9A4220D0002D52D1374A10
:101ED000344C9368364D374923F460439360A468CB
:101EE000AB68896823430B43DB4303F0010373B3FF
:101EF000936823F4716323F00F0393600023D5E705
:101F00002B4BCAE702231846F0BC70470DB32A4A90
:101F10004E68936890F8384023F46043334343EAB3
:101F2000443393604FF0A0421F4B94689B68234357
:101F3000DB4302F5407203F0010343B194688B6800
:101F400024F471611D4321F00F010D4395600023BE
:101F5000ACE7194A936823F4604393604FF0A042C2
:101F6000114B91689B680B43DB4302F5407203F011
:101F70000103BCE70D4A4E68936890F838400C4F57
:101F800023F46043334343EA4433064E9360094CE1
:101F9000B668BB68A46833432343DB4303F0010303
:101FA000CBE700BF000400500001005000070050C4
:101FB0000005005000060050000300502DE9F04FCE
:101FC0000E6883B0002E00F08B80DFF8D4E1002390
:101FD000012202FA03F414EA060C7CD04D6825F0C5
:101FE000100A0AF1FF32012A4FEA43084FF00302B8
:101FF00079D9C7688C6802FA08F227EA020704FA5E
:1020000008F43C43C460D743046805F0030227404A
:1020100002FA08F23A43EC0002605CD55A4C226E98
:1020200042F001022266226E23F0030404F1804490
:1020300002F0010204F58034019203F003024FEA3A
:102040008209019FA7680F2202FA09F8B0F1904FA8
:1020500027EA080718D04D4A904200F084804C4A85
:10206000904200F085804B4A904276D04A4A904296
:1020700000F08480494A90420CBF4FF005084FF0B1
:10208000060808FA09F21743A760DEF800406FEA75
:102090000C07EA0354BF3C404CEA0404CEF800406D
:1020A000DEF80440AA0354BF3C404CEA0404CEF8D6
:1020B0000440DEF80840EA0254BF3C404CEA040405
:1020C000CEF80840DEF80C20AC0254BF3A404CEA8F
:1020D0000202CEF80C20013336FA03F27FF478AF17
:1020E00003B0BDE8F08F8768D1F8089002FA08F2D3
:1020F00027EA020BCF6807FA08F747EA0B07876061
:102100004768C5F3001B27EA04075C469C403C4334
:102110004460C46809FA08F924EA020449EA04049C
:10212000BAF1020F6FEA0207C4607FF46DAF4FEAA5
:10213000D30900EB890903F00702D9F82040920087
:102140004FF00F0A0AFA02FB24EA0B0A0C699440CA
:1021500044EA0A04C9F8204056E74FF0030808FA99
:1021600009F2174390E7012202FA09F217438BE7BD
:102170004FF0020808FA09F2174385E74FF0040808
:1021800008FA09F217437FE70010024000040048F4
:1021900000080048000C00480010004800140048E7
:1021A000000401400AB1816170478162704700BF3D
:1021B00010B5032000F008FE0020FFF791F910B1E0
:1021C0000124204610BD0446FFF770F9204610BDDB
:1021D000034A0449136809680B441360704700BF41
:1021E000541E002000000020014B1868704700BFFB
:1021F000541E0020002800F0C3812DE9F04103683F
:10220000D90782B004462DD5B5498A68C96802F05D
:102210000C020C2A00F00A81082A00F00C81636885
:10222000B3F5803F00F03381B3F5A02F00F09B8120
:10223000AB4D2A6822F480322A602A6822F4802278
:102240002A60002B40F02881FFF7CEFF064605E00C
:10225000FFF7CAFF801B642800F23B812B689F03B5
:10226000F6D423689E0728D59D4A9368D26803F068
:102270000C030C2B00F0EC80042B00F0EE80E368E4
:10228000974D002B00F016812B6843F480732B6070
:10229000FFF7AAFF064605E0FFF7A6FF801B02280E
:1022A00000F217812B685805F6D56B68226923F078
:1022B000FE4343EA02636B6023681A0719D563691A
:1022C000874D002B00F09E80D5F8943043F0010339
:1022D000C5F89430FFF788FF064605E0FFF784FF56
:1022E000801B022800F2F580D5F894309F07F5D5C1
:1022F0002368590741D57A4B9A6DD20000F1ED80E1
:102300009A6D42F080529A659B6D03F08053019361
:10231000019B0125734E3368DF0540F11381A368EB
:10232000012B00F0E380052B00F069816C4ED6F89C
:10233000902022F00102C6F89020D6F8902022F0DA
:102340000402C6F89020002B40F0D780FFF74CFF26
:1023500041F28838074605E0FFF746FFC01B4045BD
:1023600000F2B780D6F890309A07F5D425B15C4AD0
:10237000936D23F08053936523689B0618D5A3695A
:10238000574D002B00F0CA80D5F8983043F0010378
:10239000C5F89830FFF728FF064605E0FFF724FF51
:1023A000801B022800F29580D5F898309F07F5D55C
:1023B000E06918B34A4DAB6803F00C030C2B00F036
:1023C0002C812B68022823F080732B6000F0DA80C8
:1023D000EB6823F00303EB60EB6823F0887323F4CE
:1023E0008033EB60FFF700FF044604E0FFF7FCFEDC
:1023F000001B02286DD82B689B01F7D4002002B087
:10240000BDE8F081D5F8943023F00103C5F894308D
:10241000FFF7EAFE064604E0FFF7E6FE801B02280F
:1024200057D8D5F894309807F6D461E701F0030146
:1024300003297FF4F4AE2A4A126892037FF512AFA3
:102440006268002A7FF40EAF012002B0BDE8F0817F
:1024500002F00302022A7FF412AF214B1B685D05D4
:1024600002D5E368002BEFD01D4A206953681E494E
:1024700023F0FE4343EA006353600868FFF730F837
:102480000028E1D123681A077FF533AF17E7144A14
:10249000136843F480331360FFF7A6FE104E054621
:1024A00004E0FFF7A1FE401B642812D833689B03A9
:1024B000F7D5D6E62B6823F480732B60FFF794FEE4
:1024C00006462B685905DDD5FFF78EFE801B0228D6
:1024D000F7D9032002B0BDE8F08100251AE700BF5C
:1024E000001002400070004004000020654AD2F84D
:1024F000903043F00103C2F89030FFF775FE614F52
:10250000064641F2883804E0FFF76EFE801B404526
:10251000DFD8D7F890309907F6D527E7D5F8983067
:1025200023F00103C5F89830FFF75EFE064604E08D
:10253000FFF75AFE801B0228CBD8D5F898309807B1
:10254000F6D435E7336843F480733360FFF74CFE0D
:1025500007463368D8053FF5E2AEFFF745FEC01BDE
:102560000228F6D9B5E703F18043A3F53C331A6896
:1025700042F480221A601A6842F480321A608BE7B3
:1025800001207047FFF730FE064604E0FFF72CFEFF
:10259000801B02289DD82B689901F7D4E9683A4B33
:1025A000226AA76AE66A606A0B401343D4E90C12F8
:1025B00043EA072343EAC6630138490843EA0013A4
:1025C0000139520843EA4153013A43EA4263EB605E
:1025D0002B682C4E43F080732B60EB6843F08073C4
:1025E000EB60FFF701FE044605E0FFF7FDFD001B71
:1025F00002283FF66EAF33689A01F6D5FEE6214B0E
:10260000D3F8902042F00402C3F89020D3F8902031
:1026100042F00102C3F890206FE701283FF4EFAECB
:10262000EB68226A03F0030191427FF40DAF616A07
:1026300003F0F0020139B2EB011F7FF405AFA16A8C
:1026400003F4FE42B2EB012F7FF4FEAEE16A03F029
:102650007842B2EBC16F7FF4F7AE226B5208013AB9
:1026600003F4C001B1EB425F7FF4EEAE626B52083F
:10267000013A03F0C063B3EB426F14BF01200020A6
:10268000BDE600BF001002400C809F01184B9A6805
:1026900002F00C02042A27D09A6802F00C02082AE1
:1026A00024D09A6802F00C020C2A01D00020704756
:1026B000D968D868DB6801F00301C0F3031003296F
:1026C000C3F3062300F101020CBF0A480A48B0FB1D
:1026D000F2F000FB03F0064BDB68C3F34163013308
:1026E0005B00B0FBF3F07047034870470148704748
:1026F0000010024000127A000024F400002800F0CC
:10270000EF807F4A2DE9F843136803F00F038B42F3
:102710000D4604460CD2136823F00F030B431360DD
:10272000136803F00F038B4202D00120BDE8F88349
:102730002368DE0763D56268032A00F09A80714B34
:10274000022A1B6800F091805B05EED5FFF79EFF23
:102750006D4B984200F2C68062684FF00009694EE6
:10276000B36823F003031A43B260FFF73DFD41F263
:102770008838074604E0FFF737FDC01B404571D895
:10278000B368626803F00C03B3EB820FF3D12368E4
:102790009F0736D4B9F1800F03D1B36823F0F0035B
:1027A000B360574E336803F00F03AB4246D823683B
:1027B0005A0706D55349E0688A6822F4E06202436A
:1027C0008A601B0707D54F4A2169936823F4605339
:1027D00043EAC1039360FFF759FF4A4A4B4C9268A2
:1027E0004B49C2F303120346A25C4A4802F01F029F
:1027F000D3400B600068BDE8F843FEF771BE980750
:10280000CFD5580704D53F498A6842F4E0628A6010
:10281000190706D53B4A936823F47C5343F4E063DD
:102820009360384AA1689368354E23F0F0030B4358
:102830009360336803F00F03AB42B8D9336823F0D9
:102840000F032B433360FFF7CFFC41F28838074674
:10285000336803F00F03AB42A9D0FFF7C5FCC01BE0
:102860004045F5D90320BDE8F8839A033FF56EAFE4
:102870005BE72448016889017FF557AFC768C168E5
:10288000C06807F00307C1F30311032F01F101062C
:102890000CBF21492149B1FBF6F11A4E1A4FC0F382
:1028A000062001FB00F1F068C0F3416001304000F8
:1028B000B1FBF0F1B94220D9B16811F0F00F05D0A9
:1028C00013F002093FF44BAFA368B3B90D498B680D
:1028D00023F0F00343F080038B604FF080093EE764
:1028E00001207047074A936823F0F00343F0800308
:1028F000936062684FF0800931E74FF000092EE7DE
:10290000002002400010024000B4C40450640008DB
:10291000080000200400002000127A000024F400C7
:10292000054B064A9B680649C3F302230868D35C3B
:1029300003F01F03D8407047001002406064000895
:1029400008000020054B064A9B680649C3F3C223D2
:102950000868D35C03F01F03D840704700100240A2
:1029600060640008080000200E4B0F2202609A6885
:1029700002F0030242609A6802F0F00282609A68F4
:1029800002F4E062C2609B68DB0810B403F4E06309
:10299000054C036123685DF8044B03F00F030B60E3
:1029A000704700BF00100240002002402DE9F041B6
:1029B0000368044613F4002082B056D0B64B9A6DDB
:1029C000D50040F13E810027B44D2B6843F480735D
:1029D0002B60FFF709FC064605E0FFF705FC831BAB
:1029E000022B00F239812B68D805F6D5AA4DD5F80F
:1029F000903013F4407327D0226D9A4225D0D5F839
:102A00009010D5F8903043F48033C5F89030D5F865
:102A1000903021F4407023F48033C907C5F890301A
:102A2000C5F8900040F14881FFF7DEFB41F288389D
:102A3000064605E0FFF7D8FB801B404500F20C81FD
:102A4000D5F890309B07F5D5236D9349D1F89020A8
:102A500022F440721343C1F89030002027B18E4A0F
:102A6000936D23F0805393652368DD0708D58A4969
:102A70006568D1F8882022F003022A43C1F8882033
:102A8000990708D58449A568D1F8882022F00C025E
:102A90002A43C1F888205A0708D57F49E568D1F84C
:102AA000882022F030022A43C1F888201F0708D569
:102AB00079492569D1F8882022F0C0022A43C1F85B
:102AC0008820DE0608D574496569D1F8882022F48B
:102AD00040722A43C1F888209D0608D56E49A56931
:102AE000D1F8882022F440622A43C1F88820590690
:102AF00008D56949E569D1F8882022F440522A4373
:102B0000C1F888201A0608D56349256AD1F88820BB
:102B100022F440422A43C1F88820DF0508D55E49E7
:102B2000656AD1F8882022F440322A43C1F888200F
:102B30009E0308D55849A56AD1F89C2022F00302CB
:102B40002A43C1F89C209D0508D55349E56AD1F870
:102B5000882022F440222A43C1F8882059050BD549
:102B60004D49256BD1F8882022F440122A43B5F54F
:102B7000801FC1F8882071D01A050BD54649656BB6
:102B8000D1F8882022F440022A43B5F5800FC1F81D
:102B9000882068D0DF040BD53F49A56BD1F8882089
:102BA00022F040722A43B5F1807FC1F888205FD0BF
:102BB0009E040BD53849E56BD1F8882022F040629D
:102BC0002A43B5F1006FC1F8882056D05D040BD5BB
:102BD0003149256CD1F8882022F040622A43B5F1B2
:102BE000006FC1F888204DD019040BD52A49656CB7
:102BF000D1F8882022F040522A43B5F1805FC1F815
:102C0000882044D0DA030BD52349A56CD1F888205D
:102C100022F040422A43B5F1804FC1F888203FD0CE
:102C20005B030BD51C4AE16CD2F89C3023F44013B3
:102C30000B43B1F5001FC2F89C3036D002B0BDE89E
:102C4000F0819A6D42F080529A659B6D03F080533B
:102C50000193019B0127B7E60320FFE6CA6842F40F
:102C60008012CA6088E7CA6842F48012CA6091E79D
:102C7000CA6842F48012CA609AE7CA6842F48012B5
:102C8000CA60A3E7CA6842F48012CA60ACE7CA68A7
:102C900042F48032CA60B5E7001002400070004084
:102CA000CA6842F48032CA60BAE7D36843F480133A
:102CB000D36002B0BDE8F0811346C6E63B4A10B4CB
:102CC000136868B903F4C063B3F5806F14D0D2F809
:102CD000803023F48073C2F880305DF8044B704775
:102CE000B0F5007F2FD023F4C06343F480631360FA
:102CF00000205DF8044B7047D2F880102C4B2D4813
:102D000021F48071C2F88010116821F4C06141F48F
:102D1000007111601C685169322303FB04F3A0FBAE
:102D200003039B0C480503F1010306D500E023B122
:102D30005169490503F1FF33F9D41C4B5B695C050C
:102D4000D6D50320C9E703F4C063B3F5806F09D07B
:102D5000D2F880305DF8044B43F480730020C2F851
:102D600080307047D2F88010114B124841F48071C6
:102D7000C2F88010116821F4C06141F40071116043
:102D80001C685169322303FB04F3A0FB03039B0C73
:102D9000480503F10103D0D501E0002BCDD05169E6
:102DA000490503F1FF33C8D5F7E700BF00700040C5
:102DB0000800002083DE1B43024A936843F48043EB
:102DC00093607047007000400849CA6810B4000260
:102DD0004FF6FF04224000F4E063134343F0BF6367
:102DE00043F400335DF8044BCB60704700ED00E026
:102DF000194BDB68C3F3022330B4C3F10705042D7C
:102E000003F1040428BF0425062C19D9033B4FF015
:102E1000FF349C4022EA04024FF0FF34AC4021EA28
:102E200004019940002841EA02010CDB00F16040F6
:102E300000F561400901C9B280F8001330BC704749
:102E400000221346E8E7054B00F00F000901034498
:102E5000C9B2197630BC704700ED00E0FCEC00E030
:102E6000002807DB044A00F01F01012340098B40C2
:102E700042F82030704700BF00E100E0B0B110B56B
:102E800090F82130044603F0FF0253B100200123E3
:102E9000606284F82130C4E90100C4E90300606184
:102EA00010BD80F82020FDF7C9FFEFE70120704733
:102EB000002800F003812DE9F04790F85C300446CB
:102EC00003F0FF02002B73D02268936923F01003F4
:102ED0009361FFF789F9054604E0FFF785F9431B85
:102EE0000A2B5BD823689A691207F6D49A6942F0D4
:102EF00001029A61FFF778F9054604E0FFF774F9DB
:102F0000401B0A284AD822689369DB07F6D59369E3
:102F1000734943F002038A42936100F0CB80237C23
:102F2000012B93690CBF23F0400343F040039361EE
:102F3000637C012B93690CBF43F4804323F48043EB
:102F40009361A37C012B93690CBF23F4805343F45A
:102F5000805393619369D4E9025123F440732B4366
:102F60009361936923F0A40393611369012923F00A
:102F70001003136121D021B30229936900F0AB80C3
:102F800043F0800393611369032943F01003136135
:102F900017D1936943F02003936112E0236E03225B
:102FA00043F00103236684F85C200120BDE8F0872C
:102FB00080F85D20FDF77EFF86E7936943F0040308
:102FC0009361D4E90613013B206A01391B0243EAED
:102FD0004163616901380343013943EA0143B5F5AF
:102FE000407FD3610ED1D4E90B53D4E90910013BE2
:102FF0001B01013D43EA052301380343013943EA3C
:103000000143D360D2F8C030E06B364903438A42B3
:10301000C2F8C03054D0344EDFF8F4E03348344BBB
:10302000DFF8F0A0DFF8F090DFF8F0C0314D324F5C
:10303000DFF8EC80B24201F5795106F5834601F1E3
:10304000380106F1700604BFF4468646A0F1B000D0
:103050001CBF0D469E4601F1D801A3F1B00301BF8C
:103060005746C84631460346D2F88060606B2364F9
:1030700026F4F81646EA0040C2F88000D2F8800034
:10308000A66BC4F8448020F0706040EA0660C2F885
:103090008000C4E912ECC4E91475002243F8042B43
:1030A0008B42FBD30123226684F85C30A2650020AA
:1030B000BDE8F087114B6168196030E70120704767
:1030C0000F4D104FDFF85CC0DFF85CE0DFF85C808C
:1030D0000D490E4BC8E743F02003936171E700BF31
:1030E0000064004000680040006C004050AB0040AD
:1030F000B0A4004018AD004060A60040006500404C
:10310000C8A90040B0A90040A0AA004050A70040B4
:1031100028AC004000AD004010AB004088A5004046
:1031200070A40040D8A8004000A80040C0A70040FC
:1031300038B50446FFF758F823681A6942F480321C
:1031400005461A6106E0FFF74FF8431BB3F5FA7F17
:1031500007D823681B6913F48033F4D163631846DE
:1031600038BD636B43F080036363032038BD00BF49
:1031700080B370B590F83130044603F0FF0223B3FA
:103180000025202684F83360656084F83260E560AD
:1031900065612582A5612562A5832046FFF7C8FFEA
:1031A000032807D00023656384F8303084F8316049
:1031B000284670BD636B43F010036363A0220023B5
:1031C00084F8312084F8303070BD80F83020FDF76D
:1031D000B5FED5E70120704700287FD0D0F824C085
:1031E0002DE9F0410446BCF1000F5CD00023C0E99A
:1031F000043394F85D30002203F0FF01A262002B3B
:103200005ED02168E268022384F85D300B68B2F575
:10321000E06F23F040030B604CD9B2F5706F5FD1C3
:10322000A36A002703F40050D4E901362569D4F8D5
:1032300018E006F4044603F48273334305F00205F4
:103240002B43656902F4706805F00105626B2B433E
:10325000D4E9076502F0080242EA08024FEA1E4874
:103260000EF4007E08F0040843EA0E0306F0380668
:1032700042EA0802334305F080050CF0100C42EAE4
:103280000C0C2B4303434CEA07070B604F60CB69E0
:10329000002223F400630125CB61226684F85D508F
:1032A0001046BDE8F0814368B3F5827FA1D0C0F835
:1032B0001CC09EE70CD04FF480570020A062B3E7FB
:1032C00084F85C102046FDF79BFED4F824C098E7F4
:1032D000A36A4FF4805703F40050A5E7012070471C
:1032E0000027EAE7036A23F001030362F0B4036AEC
:1032F000466882691A4F8D680C6822F4803223F088
:10330000020322F07302B84243EA050342EA0402D0
:1033100012D0144CA0420FD004F54064A0420BD050
:1033200004F58064A04207D004F58064A04203D075
:1033300004F50064A0420BD1CC6823F008032343BA
:10334000D1E9054526F440762C4323F004032643B7
:10335000496846608261F0BC41630362704700BF08
:10336000002C014000340140036A23F4807303629F
:10337000F0B4036A4668C269214F8D680C6822F474
:10338000803223F4007322F07302B84243EA05232B
:1033900042EA040216D01B4CA04213D004F5E054BC
:1033A000A04224D0184CA04213D004F58064A0425F
:1033B0000FD004F58064A0420BD004F50064A04255
:1033C0000ED106E0CC6823F4006343EA042323F41F
:1033D0008063D1E9054526F440562C4346EA04169D
:1033E00049684660C261F0BCC16303627047CC6843
:1033F00023F4006343EA042323F48063D2E700BF8D
:10340000002C01400034014000400140036A23F4D5
:1034100080530362F0B4036A4668C269214F8D6825
:103420000C6822F0807223F4005322F4E642B84282
:1034300043EA053342EA042216D01B4CA04213D0C3
:1034400004F5E054A04224D0184CA04213D004F557
:103450008064A0420FD004F58064A0420BD004F534
:103460000064A0420ED106E0CC6823F4004343EA96
:10347000043323F48043D1E9054526F440462C4328
:1034800046EA841649684660C261F0BC0164036282
:103490007047CC6823F4004343EA043323F48043A9
:1034A000D2E700BF002C0140003401400040014041
:1034B000036A23F480330362F0B4026A4668036D42
:1034C000164F8D680C6823F4803322F4003223F009
:1034D0007003B84242EA054243EA040312D0104C9A
:1034E000A0420FD004F54064A0420BD004F58064E4
:1034F000A04207D004F58064A04203D004F5006424
:10350000A04204D14C6926F4803646EA0426496874
:1035100046600365F0BC816402627047002C014084
:1035200000340140036A23F480130362F0B4026A9A
:103530004668036D164F8D680C6823F0807322F483
:10354000001223F4E043B84242EA055243EA04235E
:1035500012D0104CA0420FD004F54064A0420BD012
:1035600004F58064A04207D004F58064A04203D033
:1035700004F50064A04204D14C6926F4802646EA92
:103580008426496846600365F0BCC16402627047E6
:10359000002C01400034014090F83D30012B32D125
:1035A00003681B49022280F83D20DA688B4242F012
:1035B0000102DA6019D0B3F1804F16D0154A934258
:1035C00013D002F5806293420FD002F580629342DD
:1035D0000BD002F59432934207D002F54062934239
:1035E00003D002F58052934207D199680A4A0A40F3
:1035F000062A0AD0B2F5803F07D01A6842F00102CD
:103600001A6000207047012070470020704700BFFB
:10361000002C01400004004007000100704700BF7B
:10362000704700BF90F83C30012B00F08C80F0B464
:1036300002680124022380F83C4080F83D30956800
:103640000B685C4C602B04EA050494607DD021D9A2
:10365000B3F5005F67D04AD957498B4208D03ED9AD
:1036600056498B4204D0103923F020048C4208D1F3
:10367000916821F4401121F070010B4343F00703DE
:1036800093600023012280F83D2080F83C30F0BC9C
:1036900018467047402B73D01BD9502BF1D1156AB7
:1036A000166A4C68CF6826F001061662936925F009
:1036B0000A0123F0F00343EA0713214393611162E7
:1036C000936823F4401323F0700343F0570393608F
:1036D000D7E7202BCCD01CD9302BD2D1C8E720394A
:1036E0008B42C5D019D936498B42C1D0C9E7702B5E
:1036F000C7D1D1E90153CC6891682B4343EA042335
:1037000021F47F410B439360936843F07703936008
:10371000B7E733F01001B4D1AAE723F01001B1F5F7
:10372000801FAED1A4E7D1E90153CC6891682B4347
:1037300043EA042321F47F410B439360936843F4ED
:10374000804393609DE702207047146A4D68CE68FD
:1037500024F0100414629169136A21F4704123F07B
:10376000A00343EA051341EA0631916113629368AD
:1037700023F4401323F0700343F06703936080E762
:10378000156A166A4C68CF6826F0010616629369BE
:1037900025F00A0123F0F00343EA07132143936164
:1037A0001162936823F4401323F0700343F047033E
:1037B000936066E78800CEFF4000100060001000B4
:1037C00030001000704700BF704700BF704700BF57
:1037D000704700BF03681A69910710B5044603D506
:1037E000DA68920700F18A801A69520702D5DA680E
:1037F000500770D41A69110702D5DA68120758D435
:103800001A69D10602D5DA68D2063ED41A69D00701
:1038100003D5DA68D10700F18A801A69120603D548
:10382000DA68100600F18B801A69D10503D5DA68D1
:10383000120600F18C801A69500603D5DA68510629
:1038400000F18D801A69920603D5DA68900600F1BE
:103850008E801A69D10203D5DA68D20200F18F8016
:103860001A69900203D5DA68910200F190801A6912
:10387000520203D5DA68500200F191801A691102F0
:1038800002D5DA6812024AD410BD6FF01001082286
:1038900019612277DB6913F4407F204640F0908065
:1038A000FFF790FF2046FFF791FF00222368227761
:1038B000ACE76FF00801042219612277DB699B07EE
:1038C00020467AD1FFF77EFF2046FFF77FFF0022D8
:1038D0002368227794E76FF00401022219612277AE
:1038E0009B6913F4407F204664D1FFF76BFF2046AD
:1038F000FFF76CFF0022236822777BE76FF002015D
:103900000122196102779B69990750D1FFF75AFF8D
:103910002046FFF75BFF00222368227764E76FF4FD
:10392000000220461A61BDE8104000F097BB6FF01E
:1039300001021A612046FCF78DFF23686DE76FF0E6
:1039400080021A61204600F07FFB23686CE76FF469
:1039500080721A61204600F079FB23686BE76FF0F4
:1039600040021A612046FFF733FF23686AE76FF0D1
:1039700020021A61204600F065FB236869E76FF4B6
:1039800080121A61204600F063FB236868E76FF439
:1039900000121A61204600F05DFB236867E76FF4B0
:1039A00080021A61204600F057FB236866E7FFF7A4
:1039B0000BFFB0E7FFF708FF9CE7FFF705FF86E77F
:1039C000FFF702FF71E700BF314A0368904270B40D
:1039D0003ED0B0F1804F26D0A2F59432904222D052
:1039E00002F5806290421ED002F5806290421AD0A9
:1039F00002F5943290422BD002F5E052904241D031
:103A0000244A90423BD002F58062904237D002F5C2
:103A10008062904233D002F5006290422FD04D690F
:103A20008C680A680AE04A68CE684D698C6823F0A1
:103A30007003134323F440730A68334323F0800375
:103A40002B4303600123C462826270BC43617047F0
:103A50004D68CC684A6923F070032B4323F440730C
:103A6000234323F08003134303608B68C3620B6816
:103A700083620B690363012370BC43617047CC68A8
:103A80004A69EBE74A6823F070031343B8E700BFC5
:103A9000002C01400040014070B310B590F83D305B
:103AA000044603F0FF0213B30223214684F83D309D
:103AB00051F8040BFFF788FF012384F8483084F89D
:103AC0003E3084F83F3084F8403084F8413084F848
:103AD000423084F8433084F8443084F8453084F828
:103AE000463084F8473084F83D30002010BD80F81F
:103AF0003C20FDF75DFBD7E70120704770B310B5A0
:103B000090F83D30044603F0FF0213B30223214630
:103B100084F83D3051F8040BFFF756FF012384F879
:103B2000483084F83E3084F83F3084F8403084F8E0
:103B3000413084F8423084F8433084F8443084F8CB
:103B4000453084F8463084F8473084F83D30002012
:103B500010BD80F83C20FFF761FDD7E701207047DA
:103B600070B310B590F83D30044603F0FF0213B374
:103B70000223214684F83D3051F8040BFFF724FF5F
:103B8000012384F8483084F83E3084F83F3084F8CC
:103B9000403084F8413084F8423084F8433084F86F
:103BA000443084F8453084F8463084F8473084F84F
:103BB0003D30002010BD80F83C20FFF731FDD7E7F5
:103BC00001207047002859D0F0B590F83D3083B0FF
:103BD0000D46044603F0FF02002B4AD02146022383
:103BE00084F83D3051F8040B836823F4A03323F0AC
:103BF00007038360FFF7E8FE21682B6988688E69F8
:103C0000AF69AA68D5F800C026F4407EEE691B01B2
:103C100043EA06232E6A0196EE683343019E2EF096
:103C2000030E42EA072242EA0E020F6A43EA063313
:103C30006E696D6822F47C4240EA0C0022F0FC02BE
:103C400027F0AA0745EA0615886013433D43012281
:103C500000208B610D6284F8482084F83E2084F8AF
:103C60003F2084F8442084F8452084F83D2003B0A8
:103C7000F0BD80F83C20FDF769FAAFE701207047FE
:103C8000036A23F010030362F0B4036A4668826992
:103C9000214F8D680C6822F0807223F0200322F4FB
:103CA000E642B84243EA051342EA042216D01B4C0E
:103CB000A04213D004F5E054A04224D0184CA042F6
:103CC00013D004F58064A0420FD004F58064A042B4
:103CD0000BD004F50064A0420ED106E0CC6823F0BE
:103CE000800343EA041323F04003D1E9054526F499
:103CF00040662C4346EA8406496846608261F0BC0F
:103D0000816303627047CC6823F0800343EA0413A5
:103D100023F04003D2E700BF002C014000340140F3
:103D20000040014090F83C30012B3DD0012310B5FC
:103D3000044680F83C30142A0FD8DFE802F00B0E5E
:103D40000E0E190E0E0E200E0E0E270E0E0E2E0E3D
:103D50000E0E12000068FFF7C5FA002084F83C0040
:103D600010BD0068FFF7DEFB002084F83C0010BDAA
:103D70000068FFF785FF002084F83C0010BD006854
:103D8000FFF7F2FA002084F83C0010BD0068FFF74E
:103D90003DFB002084F83C0010BD0068FFF788FB65
:103DA000002084F83C0010BD0220704738B590F820
:103DB0003C30012B00F08F80012304460D4680F833
:103DC0003C30142A1CD8DFE802F00B1B1B1B341BF1
:103DD0001B1B491B1B1B5D1B1B1B721B1B1B1F0083
:103DE0000068FFF77FFA23682869996941F00801A4
:103DF0009961996921F0040199619A6902439A6174
:103E0000002084F83C0038BD0068FFF78BFB236876
:103E10002869196D41F400611965196D21F48061FB
:103E200019651A6D42EA002200201A6584F83C00E8
:103E3000E9E70068FFF724FF23682869996941F4DE
:103E400000619961996921F4806199619A6942EAF6
:103E5000002200209A6184F83C00D4E70068FFF754
:103E600083FA23682869D96941F00801D961D969C1
:103E700021F00401D961DA6902430020DA6184F893
:103E80003C00C0E70068FFF7C1FA23682869D969D8
:103E900041F40061D961D96921F48061D961DA699D
:103EA00042EA00220020DA6184F83C00ABE70068B7
:103EB000FFF7FEFA23682869196D41F008011965BA
:103EC000196D21F0040119651A6D024300201A656D
:103ED00084F83C0097E7022038BD00BF90F83C30E2
:103EE000012B58D070B402682C4C022380F83D306E
:103EF000A2425368956842D004F50064A24232D0D1
:103F000004F5E054A2422ED00C6823F0007323F095
:103F1000700323435360B2F1804F16D0204B9A4276
:103F200013D003F580639A420FD003F580639A4261
:103F30000BD003F594339A4207D003F540639A42BD
:103F400003D003F580539A4204D18B6825F0800595
:103F50001D4395600023012280F83D2080F83C300D
:103F600070BC18467047D1E9004623F47003334310
:103F700023F0007323F0700323435360CBE7D1E9B0
:103F8000004623F47003334323F0007323F07003DF
:103F900023435360D9E70220704700BF002C014043
:103FA0000004004090F83C30012B47D030B4D1E9F8
:103FB0000253024623F44073D1E900042B4323F457
:103FC0008063234323F40063D1E90454034323F4BF
:103FD00080532B4323F40053086B8D69234323F450
:103FE00080430343164C106823F47023A04243EA35
:103FF000054307D004F50064A04203D004F5E05463
:10400000A04214D1CD698C6A23F080532B4323F452
:10401000700343EA0453D1E9085423F080732B431F
:1040200023F00073C96A234323F000530B4300219C
:10403000436482F83C10084630BC70470220704749
:10404000002C0140704700BF704700BF704700BFA1
:10405000704700BF704700BF704700BF704700BF88
:1040600070B5D0E9046582680368B94904463243F3
:10407000C069666E2A431D680243294032430A43E1
:104080001A605A68E568B349A66922F440522A4387
:104090005A608B42996800F0C180D4E9082521F06C
:1040A0006E4121F4306132430A439A60DA6AAA49C8
:1040B00022F00F022A438B42DA6227D0A74A9342AA
:1040C00037D0A74A934200F01B81A64A934200F0E2
:1040D000F280A54A934211D1A44BD3F8883003F45F
:1040E0004073B3F5007F00F02C8100F20481002BB7
:1040F00000F0F380B3F5807F00F0E9800120002319
:104100004FF00112C4E91A23236770BD974BD3F80F
:10411000883003F00303013B022B40F2E480B0F54A
:10412000004F00F00881FEF70DFC002874D0656A8E
:1041300027E08E4B8E4AD3F8883003F00C03D35C13
:10414000B0F5004F34D0082BD8D801A252F823F094
:10415000E142000827410008AD410008FD40000889
:10416000D5420008FD400008FD400008FD40000861
:104170007F410008302BC1D1B0F5004F31D04FF452
:10418000004062687B4B33F81530B0FBF3F303EB70
:104190005203B3FBF2F39BB2A3F110014FF6EF729F
:1041A0009142ABD822680020D360A8E77248E8E7C4
:1041B000082BA3D801A252F823F000BF294300081E
:1041C00037430008E1410008FD4000083D43000876
:1041D000FD400008FD400008FD400008E3410008E4
:1041E000654862686349530831F81510B0FBF1F077
:1041F00003EB4000B0FBF2F083B2A3F110014FF6E5
:10420000EF7291423FF67AAF20F00F00226880B241
:10421000C3F342031843D060002070E721F06E41E1
:1042200021F4306131439960DA6A616A4F4822F0C3
:104230000F020A43DA62D0F8883003F44063B3F522
:10424000006F6FD009D8002B50D0B3F5806F7FF48A
:1042500055AFFEF71BFA30B9DEE7B3F5406F7FF4D8
:104260004DAF4FF400406568424B626A05EB450173
:1042700033F81220B0FBF2F399423FF63FAFB3EBB5
:10428000053F3FF63BAF00230021FCF7FBF80B0294
:1042900043EA106302026808101843F100012A463D
:1042A0000023FCF7EFF8354AA0F540719142034630
:1042B0003FF624AF76E72D4BD3F8883003F0C003E8
:1042C000802B3ED02AD843B1402B7FF417AFB0F5F6
:1042D000004F33D0FEF7DAF927E7B0F5004F23D0CF
:1042E000FEF71EFB21E7264AD35C29E7FEF718FB01
:1042F0000028B8D190E7B3F5407F3FF43DAFFDE62D
:104300001A4BD3F8883003F03003202B19D03FF636
:1043100031AF002BE1D0102BD9D0EFE6C02B3FF40A
:104320002BAFEBE614489EE7FEF7FAFA00283FF4BD
:1043300073AF656A55E7FEF705FBF7E7FEF7A6F9E9
:10434000F4E7B0F5004F0C487FF41BAF49E700BF1E
:10435000F369FFCF00800040003801400044004076
:1043600000480040004C0040005000400010024057
:104370001C6400082C6400080024F400FFFC0F00FB
:1043800018640008836ADA0710B406D50168C46AA5
:104390004A6822F4003222434A609C0706D501682D
:1043A000046B4A6822F4803222434A60590706D5DA
:1043B0000168446B4A6822F4802222434A601A074B
:1043C00006D50168846B4A6822F4004222434A60A1
:1043D000DC0606D50168C46B8A6822F48052224349
:1043E0008A60990606D50168046C8A6822F4005236
:1043F00022438A605A0609D50168446C4A6822F44F
:1044000080122243B4F5801F4A600BD01B0606D5EC
:104410000268C16C536823F400230B4353605DF8BA
:10442000044B70474A68846C22F4C00222434A60FD
:10443000ECE700BF2DE9F047DDF8208005688146F4
:104440000F4616469A4602E0B8F1FF3F0AD1EC69E2
:1044500037EA04030CBF01240024B442F4D0002046
:10446000BDE8F087FDF7C0FEA0EB0A00404521D86B
:10447000B8F1000F1ED0D9F800502B685A07E6D5C6
:10448000EB691B05E3D54FF400632B622B6823F423
:10449000D0732B60AA68202322F001020021AA60B9
:1044A0000320C9F8803089F87C10C9F88430C9F835
:1044B0008830D5E7D9F800301A6822F4D0721A6033
:1044C0009A68202122F0010200249A600320C9F892
:1044D000801089F87C40C9F88410C1E770B50446A3
:1044E000002682B0C0F88860FDF77EFE23681A6857
:1044F000120705460CD41B685B0718D42023002044
:10450000C4F8803084F87C00C4F8843002B070BDF8
:104510006FF07E430093324603464FF4001120466D
:10452000FFF788FF78B923681B685B07E6D56FF053
:104530007E4200922B4600224FF480012046FFF776
:1045400079FF0028DAD0032002B070BD80B3D0F824
:10455000803010B5044633B322682423C4F8803079
:10456000136823F0010313602046FFF779FD01284B
:1045700017D0A36A8BB923685A6822F490425A6014
:104580009A6822F02A029A601A6842F001022046D4
:104590001A60BDE81040FFF7A1BF2046FFF7F2FE0A
:1045A000E9E7012010BD80F87C30FCF739FFD3E744
:1045B0000120704730B41949194A034603C984B031
:1045C0006C4684E8030092E803005A6E04AC04E9E8
:1045D00003002AB94FF001129A6604B030BC70474C
:1045E00019688A688C68C2F3426204A90A4401EB24
:1045F000547412F8100C14F8101C12F8085C14F81B
:10460000084CC000CA00B0FBF5F1B2FBF4F2A3F80D
:104610006810A3F86A2004B030BC7047E06300085B
:104620004464000890F87C20012A17D002682421F5
:1046300030B4C0F88010034610681468002120F0E0
:10464000005024F00104146020255966106083F89E
:104650007C100846C3F8805030BC70470220704779
:1046600038B590F87C30012B1DD003680125242239
:1046700080F87C50C0F880201D681A6822F0010282
:104680001A609A6822F06042044611439960FFF76D
:1046900091FF216800230D60202284F87C301846A9
:1046A000C4F8802038BD022038BD00BF38B590F86E
:1046B0007C30012B1DD003680125242280F87C501A
:1046C000C0F880201D681A6822F001021A609A68FA
:1046D00022F06062044611439960FFF76BFF216886
:1046E00000230D60202284F87C301846C4F8802016
:1046F00038BD022038BD00BF054BD3F888204FF0ED
:10470000006142F47002C3F888209960704700BFCE
:1047100000ED00E000F108034FF0FF310022C0E996
:104720000333816002604360704700BF0023036170
:10473000704700BF4368026810B49C688C609C6836
:104740004B600132616099605DF8044B0861026062
:10475000704700BF30B40D686B1C10D000F1080327
:104760001C465B681A68AA42FAD902684B6001329B
:1047700099608C606160086130BC026070470469B8
:104780006368F2E7036910B4D0E901125C688A60DB
:104790008442516008BF5A601A685DF8044B0021DA
:1047A000013A01611A601868704700BF70B504468D
:1047B000006CA66B20B925685DB30136A66370BD99
:1047C0001546024685B96068FBF772FD6368216C87
:1047D000A2680B449342636006F1010624BF23687C
:1047E00063602846A66370BDE068FBF761FD226C3C
:1047F000E36821689B1A8B42E360C2F1000202D297
:10480000A3681A44E260022D08D001360020A66396
:1048100070BDA06800F0D0FFA560CEE7012E38BFC4
:1048200001260020CAE700BF026C72B110B40B462B
:10483000D0E902411144A142C16024BF0168C160B6
:104840005DF8044B1846FBF733BD704770B504465E
:1048500001F040FC94F845506DB2002D15DD04F1D7
:10486000240604E06B1E13F0FF0F5DB20DD0636AE7
:10487000304653B100F0EEFE0028F3D000F086FF82
:104880006B1E13F0FF0F5DB2F1D1FF2384F84530AA
:1048900001F042FC01F01EFC94F844506DB2002D72
:1048A00015DD04F1100604E06B1E13F0FF0F5DB27E
:1048B0000DD02369304653B100F0CCFE0028F3D070
:1048C00000F064FF6B1E13F0FF0F5DB2F1D1FF2308
:1048D00084F84430BDE8704001F01EBC38B5E0B14A
:1048E00004460D4601F0F6FBD4E90F03226862602E
:1048F00000FB03F0C31A1344FF2102440020A0630D
:10490000C4E9022384F8441084F84510EDB9236902
:1049100063B901F001FC012038BD4FF0500383F36F
:104920001188BFF36F8FBFF34F8FFEE704F11000C4
:1049300000F090FE0028ECD00A4B4FF080521A6035
:10494000BFF34F8FBFF36F8FE3E704F11000FFF762
:10495000E1FE04F12400FFF7DDFE01F0DDFB0120A4
:1049600038BD00BF04ED00E030B583B09DF81850AD
:1049700040B94FF0500383F31188BFF36F8FBFF33B
:104980004F8FFEE71C46DBB172B111B35023019388
:10499000019B502B26D04FF0500383F31188BFF3B7
:1049A0006F8FBFF34F8FFEE761BB50230193019BD5
:1049B000502BF0D10123019A84F84630224615E0AD
:1049C0004FF0500383F31188BFF36F8FBFF34F8F06
:1049D000FEE74FF0500383F31188BFF36F8FBFF3EF
:1049E0004F8FFEE7019B012384F84630C4E90F0195
:1049F000226001212046FFF771FF204684F84C50C9
:104A000003B030BD4FF0500383F31188BFF36F8FB5
:104A1000BFF34F8FFEE700BF2DE9F04784B001924E
:104A2000002876D088461F460446002965D0022F0C
:104A30000BD1E36B012B08D04FF0500383F31188A7
:104A4000BFF36F8FBFF34F8FFEE700F0A5FE064662
:104A5000002867D00026DFF83CA14FF0000907E0EE
:104A600001F05AFB2046FFF7F1FE00F0C7FC0126DB
:104A700001F030FBA26BE36B9A4263D3022F61D04B
:104A8000019D002D00F08280002E57D001F044FBE4
:104A900000F0F8FB01F01EFB94F84430FF2B08BF38
:104AA00084F8449094F84530FF2B08BF84F8459073
:104AB00001F032FB01A902A800F020FE00285ED11F
:104AC00001F008FBA26BE36B9A42C9D101F024FB11
:104AD000019904F1100000F083FD2046FFF7B6FEB7
:104AE00000F08CFC0028C2D14FF08053CAF800308F
:104AF000BFF34F8FBFF36F8FB9E7036C002B96D0D6
:104B00004FF0500383F31188BFF36F8FBFF34F8FC4
:104B1000FEE74FF0500383F31188BFF36F8FBFF3AD
:104B20004F8FFEE7019B002B95D04FF0500383F38E
:104B30001188BFF36F8FBFF34F8FFEE702A800F01D
:104B4000D1FDA3E73A4641462046FFF72FFE636AB0
:104B500073B938B10F4B4FF080521A60BFF34F8FCB
:104B6000BFF36F8F01F0D8FA012004B0BDE8F087E1
:104B700004F1240000F06EFD0028F3D0EAE720469F
:104B8000FFF764FE00F03AFC0020EEE701F0C4FA03
:104B90002846EAE704ED00E02DE9F843002835D087
:104BA000894690461F46044621B3022F0BD1E36B82
:104BB000012B08D04FF0500383F31188BFF36F8FA0
:104BC000BFF34F8FFEE701F0A7FBEFF311864FF025
:104BD000500383F31188BFF36F8FBFF34F8FA26B26
:104BE000E36B9A421BD3022F19D0002086F3118861
:104BF000BDE8F883036C002BD7D04FF0500383F34C
:104C00001188BFF36F8FBFF34F8FFEE74FF0500354
:104C100083F31188BFF36F8FBFF34F8FFEE794F8D4
:104C200045503A4649466DB22046FFF7BFFD6B1C22
:104C300008D06B1C5BB284F84530012086F31188E4
:104C4000BDE8F883636A002BF7D004F1240000F07C
:104C500001FD0028F1D0B8F1000FEED00120C8F816
:104C60000000C3E72DE9F04385B00192002871D020
:104C70000E460446002954D000F08EFD002844D092
:104C800001F028FAA56B002D40F08380019B002BDA
:104C900035D002A800F026FDDFF82C912F4604F154
:104CA000240801F039FA00F0EDFA01F013FA94F853
:104CB0004430FF2B08BF84F8447094F84530FF2B34
:104CC00008BF84F8457001F027FA01A902A800F096
:104CD00015FD002831D101F0FDF9A36B002B42D066
:104CE00001F01AFA2046FFF7B1FD00F087FB01F052
:104CF000F1F9A56B002D4CD1019B002BD1D101F016
:104D00000BFA002005B0BDE8F083019B002BB7D063
:104D10004FF0500383F31188BFF36F8FBFF34F8FB2
:104D2000FEE7036C002BA7D04FF0500383F31188EC
:104D3000BFF36F8FBFF34F8FFEE72046FFF786FD6F
:104D400000F05CFB01F0C6F9A36B002BD7D001F09B
:104D5000E3F9CCE74FF0500383F31188BFF36F8F73
:104D6000BFF34F8FFEE701F0D7F90199404600F0FD
:104D700037FC2046FFF76AFD00F040FB0028B6D163
:104D80004FF08053C9F80030BFF34F8FBFF36F8FE0
:104D9000ADE731462046013DFFF746FDA563236997
:104DA0001BB901F0B9F90120ACE704F1100000F0E3
:104DB00051FC0028F5D0044B4FF080521A60BFF32D
:104DC0004F8FBFF36F8FECE704ED00E030B4084A7B
:104DD000002352F8334002EBC30524B10133082B02
:104DE000F7D130BC7047686042F8331030BC704770
:104DF000581E002070B504460E46154601F06AF9AB
:104E000094F84430FF2B04BF002384F8443094F816
:104E10004530FF2B04BF002384F8453001F07CF9B6
:104E2000A36B23B12046BDE87040FFF70FBD04F12E
:104E300024002A46314600F0EDFB2046BDE87040D4
:104E4000FFF704BD2DE9F843044601F043F9344A65
:104E5000344E1368013313603368002B32D0324D67
:104E60002B683BB3E06A314F3149324AD1F800C078
:104E70001368844503F1010338BF086000EB80002C
:104E8000636407EB8000211D1360FFF753FC01F002
:104E900043F92B6863B13268E36AD26A9A4207D257
:104EA000254B4FF080521A60BFF34F8FBFF36F8FC7
:104EB000BDE8F8833368E06ADB6A1C4F834298BF21
:104EC0003460D1E734601368012B03D0E06A174FD8
:104ED000154DC9E7154F3D4607F58C682846143532
:104EE000FFF718FCA845F9D1DFF86490DFF864807B
:104EF0000D4D4846FFF70EFC4046FFF70BFC0F48F0
:104F0000FFF708FC0E48FFF705FC0E48FFF702FC10
:104F10000D4A0E4BC2F80090E06AC3F80080A3E788
:104F2000A004002034000020FC04002040000020E9
:104F3000B4040020B004002004ED00E0E8040020E8
:104F40001405002000050020380000203C0000204F
:104F5000B8040020CC040020034A044B1268D26835
:104F6000D26852681A60704738000020E0040020C0
:104F70002DE9F84F0C9C4FEA820B5A4680460D46AD
:104F8000206BA5219946DDE90A6AFBF72BFA236B12
:104F9000ABF1040B9B442BF0070B95B36A1E05F194
:104FA0000F0104F1330512F8013F05F8013F1778AE
:104FB0000FB18A42F7D1002384F84330372E28BF3F
:104FC00037260025C4E91365E662201DFFF7AEFB16
:104FD000C6F1380604F11800FFF7A8FB6565A66165
:104FE000246184F8585064624A464146584601F0AC
:104FF00041F82060BAF1000F01D0CAF80040BDE8C6
:10500000F88F84F83450D9E790F8593063B1012B08
:1050100015D0022B12D04FF0500383F31188BFF349
:105020006F8FBFF34F8FFEE710B50446006B00F0A3
:10503000ABFF2046BDE8104000F0A6BF704700F06F
:10504000A3BF00BF80B5154C154E164D164FDFF8A7
:105050005C904FF0805813E001F03CF8F368D3F80F
:105060000CA00AF10400FFF78DFB2B68013B2B60BD
:105070002368013B236001F04FF85046FFF7C4FF5F
:105080002368002BE8D13B68012BF9D9C9F80080CF
:10509000BFF34F8FBFF36F8FF2E700BFA404002070
:1050A00014050020A00400204000002004ED00E0D2
:1050B000F8B5164B164E1D6833680446181D0F468A
:1050C000FFF760FB631C17D033682C195C6007D3B3
:1050D000104B18683168BDE8F8400431FFF73ABB5F
:1050E0000D4B186831680431FFF734FB0B4B1A681D
:1050F000A24288BF1C60F8BD002FE5D03168084887
:10510000BDE8F8400431FFF715BB00BF28050020BB
:10511000340000203C00002038000020E004002083
:1051200000050020F0B587B0DDE90C650E9CBDB12F
:105130006CB15C270597059F5C2F1AD04FF0500388
:1051400083F31188BFF36F8FBFF34F8FFEE74FF0EC
:10515000500383F31188BFF36F8FBFF34F8FFEE7C8
:105160004FF0500383F31188BFF36F8FBFF34F8F5E
:10517000FEE72563022704AD0294009684F8597077
:105180000195059DFFF7F4FE2046FFF75BFE0498AE
:1051900007B0F0BD2DE9F043074685B090001546F5
:1051A0008846994600F060FEE0B104465C2000F0BD
:1051B0005BFE0646D8B104634FF0000C0D9C86F8E8
:1051C00059C001940C9C02964B462A4641463846EB
:1051D0000094FFF7CDFE3046FFF734FE012005B006
:1051E000BDE8F0834FF0FF3005B0BDE8F083204606
:1051F00000F0CAFE4FF0FF30F1E700BF30B589B0D4
:10520000002407AA06A905A8CDE9054400F0DEFDA3
:10521000DDE9051216480094CDE901212346079ADD
:105220001449FFF77FFFA8B100F064FB012813D1F8
:105230004FF0500383F31188BFF36F8FBFF34F8F8D
:105240000D490E4A0E4B4FF0FF350D6010601C608B
:1052500000F0DCFF09B030BD0130FBD14FF050034E
:1052600083F31188BFF36F8FBFF34F8FFEE700BF4B
:105270004550000868640008E0040020FC04002099
:1052800028050020024A136801331360704700BFED
:10529000AC040020014B1868704700BF28050020AF
:1052A0002DE9F04F4A4B1B6883B0002B47D1494B87
:1052B0001E6801361E60002E4FD0474D2B68B3424A
:1052C00060D8DFF820A1DAF800301C68002C73D019
:1052D000DFF81C81DFF81C91DFF81CB1002423E00B
:1052E0000191FFF74FFABB6A019907F1180013B15A
:1052F000FFF748FA0199FB6ADBF8002003EB830013
:10530000934208EB800088BFCBF80030FFF712FA19
:10531000D9F80020DAF80030F96AD26A1B689142A5
:1053200028BF0124002B4BD0DAF80030DB68DF689F
:105330007B68391D9E420846D2D22B6027E0274A5F
:105340001368013313600024254B1B68002B0CBF2E
:105350002046012003B0BDE8F08F224B1A68126886
:105360000ABB214A1868214914681C6010600A6849
:1053700001320A601B681B6833BB174D4FF0FF33C7
:105380002B609BE7DFF86880DFF868900024D9F88D
:105390000030DB6A03EB83039B0058F80330022BD9
:1053A00028BF0124D0E74FF0500383F31188BFF3E7
:1053B0006F8FBFF34F8FFEE7DFF83480DFF8349054
:1053C0004FF0FF332B60E2E7FFF7C6FD75E700BF44
:1053D000AC04002028050020E0040020A8040020E0
:1053E0002C050020380000203C000020E4040020B0
:1053F0004000002034000020B40400202DE9F84FC4
:10540000384C236843B94FF0500383F31188BFF33E
:105410006F8FBFF34F8FFEE700F05CFE2368013B08
:1054200023602368002B3AD12F4B1B68002B36D00A
:105430002E4E3368002B38D02D4FDFF8CCA0DFF88C
:10544000CC902C4D4FF00108F368DC6804F1040B9C
:1054500004F11800FFF796F95846FFF793F9E36A4D
:105460003A6803EB8300934259460AEB800088BFF9
:105470003B60FFF75FF9D9F80030E26ADB6A9A42D5
:1054800028BFC5F800803368002BDDD11A4B1B689C
:105490001B681BBB194B4FF0FF321A6006E000245B
:1054A00000F03AFE2046BDE8F88F124D144E3468E5
:1054B0003CB10127FFF7F4FE00B12F60013CF9D1A8
:1054C00034602B68002BEAD00E4B4FF080521A60EC
:1054D000BFF34F8FBFF36F8F0124E1E7FFF73CFD70
:1054E000E4E700BFAC040020A0040020E804002092
:1054F000B40400202C05002038000020E004002027
:10550000A804002004ED00E040000020340000204A
:1055100008B598B10E4B196841B14FF0500383F3B1
:105520001188BFF36F8FBFF34F8FFEE71A68013208
:105530001A60FFF7BDFDFFF761FF38B9054B4FF06B
:1055400080521A60BFF34F8FBFF36F8F08BD00BF4B
:10555000AC04002004ED00E01C4B1B681BB11C4B8D
:1055600001221A6070471A4A10B41A4C136023685B
:10557000194A03EB830080009900105840B9DBB151
:10558000013B03EB8300990052F820000028F6D07D
:10559000194402EB810002464168496841600832C3
:1055A000914208BF49680D4A08BF4160C96811604F
:1055B00023605DF8044B70474FF0500383F311886C
:1055C000BFF36F8FBFF34F8FFEE700BFAC04002027
:1055D0002C050020B40400204000002034000020EE
:1055E00060B110B50A4B0C4619681831FFF7B2F8D4
:1055F00020460121BDE81040FFF75ABD4FF050038F
:1056000083F31188BFF36F8FBFF34F8FFEE700BFA7
:105610003400002038B588B10D4B0D46196814468A
:105620001831FFF787F8002C08BF2846214618BF1D
:105630004FF0FF30BDE83840FFF73ABD4FF0500360
:1056400083F31188BFF36F8FBFF34F8FFEE700BF67
:105650003400002010B5C368DC6882B0002C2CD068
:1056600004F1180108460191FFF78CF8174B0199D6
:105670001B6873B11648FFF75DF8164BE26A1B68AA
:10568000DB6A9A4285BF144B01200020186002B0EB
:1056900010BD211D08460191FFF774F80F4AE36A17
:1056A0001068019983420E4888BF136003EB83039F
:1056B00000EB8300FFF73EF8DFE74FF0500383F382
:1056C0001188BFF36F8FBFF34F8FFEE7AC0400204C
:1056D000E8040020340000202C050020B404002041
:1056E00040000020034A044B12681B68C0E90023F5
:1056F000704700BFE404002028050020F8B508B377
:105700000D46B1B1044600F0E5FC2B68DFF878C027
:105710005A1CDCF800102BD01A4ED4E9000237686E
:10572000B84218D08A4216D8012500F0F5FC284668
:10573000F8BD4FF0500383F31188BFF36F8FBFF3B1
:105740004F8FFEE74FF0500383F31188BFF36F8F45
:10575000BFF34F8FFEE78F1ABB420ED95B1A13447B
:105760003168DCF800202B60C4E900120025DCE77A
:10577000002500F0D1FC2846F8BD00232B60012550
:10578000D3E700BFE404002028050020014B0122DC
:105790001A6070472C050020054B1B6833B1054B80
:1057A0001B68002B0CBF02200020704701207047AF
:1057B000FC040020AC040020D0B130B51E4B1C68A6
:1057C000844283B008D04FF0500383F31188BFF3B5
:1057D0006F8FBFF34F8FFEE7236D5BB1E16AE26C21
:1057E000013B9142236500D06BB1002003B030BD76
:1057F000002070474FF0500383F31188BFF36F8F81
:10580000BFF34F8FFEE7211D08460191FEF7BAFF57
:105810000A4AE36C1068E3628342094888BF136058
:10582000C3F1380503EB830300EB83000199A56105
:10583000FEF780FF0120D9E734000020B4040020E7
:1058400040000020F0B5124C83B000F043FC256806
:1058500025B103B0BDE8F04000F05EBC0D4F0E4E28
:105860003846FEF757FF3046FEF754FF0B4A0C4907
:1058700000950C4B17600E600B4A10210A20FFF7B1
:1058800073F820600028E4D00849FFF79FFAE0E7AA
:1058900054060020D8050020EC050020300500202B
:1058A000340500200406002038050020706400083C
:1058B000914208B50061416005D88169D21A8A42D7
:1058C0000CD3012008BD9A4201D29942F9D2074B6C
:1058D000011D1868FEF73EFF002008BD044B011DA6
:1058E0001868FEF737FF002008BD00BF3005002014
:1058F0003405002010B588B0FFF7A4FF124B1B68D9
:10590000CBB1002407AA06A905A8CDE9054400F0FB
:105910006BFADDE905310222CDE900210293079AF5
:105920000A490B482346FFF7FDFB0A4B186010B1EC
:10593000012008B010BD4FF0500383F31188BFF36E
:105940006F8FBFF34F8FFEE7540600207864000886
:10595000455A000858060020B0B170B5164D0446EF
:10596000286884B070B10529CDE90012029414DCD6
:10597000FFF712FF022817D0002328681A4669464D
:10598000FFF74AF804B070BD4FF0500383F311885D
:10599000BFF36F8FBFF34F8FFEE71A4669460023B0
:1059A000FFF7FAF804B070BD2868089A002369462A
:1059B000FFF732F8E6E700BF540600202DE9F0417A
:1059C0001E4E82B04FF000080DE0DB68DC681F68F7
:1059D000251D2846FEF7D6FE236A2046984794F8F0
:1059E00028305B070AD433681A68002AEDD1144ABC
:1059F00011683160136002B0BDE8F081A26907EB65
:105A0000020C002367453A461946204607D2306803
:105A1000C4F804C024612946FEF79CFEE3E7CDF8F4
:105A20000080FFF799FF0028DDD14FF0500383F38A
:105A30001188BFF36F8FBFF34F8FFEE73005002053
:105A4000340500202DE9F04F7E4F7F4E7F4CDFF86C
:105A500000B2DFF800A287B03B68D3F80080B8F14D
:105A6000000F00F09680DB68D3F80080FFF70AFC97
:105A7000FFF710FC33688342054600F29A808045A8
:105A8000306040F29F8000222068A8EB0501FFF7FC
:105A9000B1F9FFF7B3FC38B94FF08053CAF80030C2
:105AA000BFF34F8FBFF36F8F2068002202A9FFF76B
:105AB000D9F80028D0D0029B002B62DB049D6B69D3
:105AC00013B1281DFEF75EFEFFF7E4FB3168884244
:105AD000804674D3029BC6F80080092BE4D8DFE827
